:020000040800F2
:10000000083000207502000895200008972000089D
:100010009B2000089F200008A3200008000000008B
:10002000000000000000000000000000A720000801
:10003000A920000800000000AB200008AD20000847
:100040008F0200088F0200088F0200088F0200084C
:100050008F0200088F0200088F0200088F0200083C
:100060008F0200088F0200088F0200088F0200082C
:100070008F0200088F0200088F0200088F0200081C
:100080008F0200088F0200088F0200088F0200080C
:100090008F0200088F0200088F0200088F020008FC
:1000A0008F0200088F0200088F0200088F020008EC
:1000B000712000088F0200088F0200088F020008DC
:1000C0008F0200088F0200088F0200088F020008CC
:1000D0008F0200084B1F00088F0200088F020008E3
:1000E0008F0200088F0200088F02000800F002F85B
:1000F00000F0B0F80AA090E8000C82448344AAF112
:100100000107DA4501D100F0A5F8AFF2090EBAE80F
:100110000F0013F0010F18BFFB1A43F0010318473B
:1001200010B1000030B100000A444FF0000C10F88C
:10013000013B13F0070408BF10F8014B1D1108BF65
:1001400010F8015B641E05D010F8016B641E01F805
:10015000016BF9D113F0080F1EBF10F8014BAD1C55
:100160000C1B09D16D1E58BF01F801CBFAD505E073
:1001700014F8016B01F8016B6D1EF9D59142D6D3CD
:10018000704700000023002400250026103A28BFF5
:1001900078C1FBD8520728BF30C148BF0B607047F9
:1001A0006E2906F08D80702906F0D781662909F046
:1001B0005880652909F05580672909F05280612926
:1001C00009F0518003681B0A28BF41F080016929AA
:1001D00006F03A80642906F03780752906F03480ED
:1001E0006F2906F06481782906F0A381E92906F0D9
:1001F000FF80E42906F0FC80F52906F0F980EF295C
:1002000006F06181F82906F0A2810368DB0928BFA6
:1002100041F08001632906F0A986732906F0AE86B5
:10022000E32906F0B986F32906F0BE860020704760
:100230001FB506F00FFF04000020002107F05EFE4E
:10024000401C60600020002107F042FEE0601FBDFE
:1002500010B510BD06F0D0FE1146FFF7E9FF01F022
:10026000E5FE06F0ADFF03B4FFF7F2FF03BC06F0B6
:10027000B1FF00000948804709480047FEE7FEE754
:10028000FEE7FEE7FEE7FEE7FEE7FEE7FEE7FEE746
:1002900004480549054A064B704700008F210008B5
:1002A000ED000008082A002008300020082C00205B
:1002B000082C002031490143314A1160704770B564
:1002C000002100230F22C47804B32D4C246804F4C9
:1002D000E064C4F5E064210AC1F10403CA40447833
:1002E00004FA03F18478144021430901254C06786F
:1002F000A155047804F01F050124AC4005786D1168
:10030000AD0005F1E025C5F8004109E0047804F0EE
:100310001F050124AC401C4D0678761145F8264097
:1003200070BD1A4A0A400243154B1B1F1A607047E2
:1003300039B1134A121D12680243114B1B1D1A607A
:1003400006E00F4A121D126882430D4B1B1D1A60F6
:100350007047042808D14FF0E021096941F00401F9
:100360004FF0E022116107E04FF0E021096921F030
:1003700004014FF0E0221161704700000000FA050F
:100380000CED00E000E400E080E100E080FFFF1FF2
:1003900010B50446CC48844208D10121042000F065
:1003A0002DFB0021042000F029FB46E0C7488442D1
:1003B00008D10121082000F021FB0021082000F0D5
:1003C0001DFB3AE0C248844208D10121102000F010
:1003D00015FB0021102000F011FB2EE0BD488442E7
:1003E00008D10121202000F009FB0021202000F08D
:1003F00005FB22E0B848844208D10121402000F0EA
:10040000FDFA0021402000F0F9FA16E0B3488442DA
:1004100008D10121802000F0F1FA0021802000F0B5
:10042000EDFA0AE0AE48844207D10121801500F0C0
:10043000E5FA0021A01500F0E1FA10BD10B5012188
:10044000084600F0DBFA0021012000F0D7FA10BDC9
:100450002DE9F0410246002500260020002300245B
:10046000002791F803C00CF00F0591F803C00CF0C1
:10047000100CBCF1000F03D091F802C04CEA050546
:1004800091F800C0BCF1000F31D0146800202BE0BF
:100490004FF0010C0CFA00F3B1F800C00CEA0306AF
:1004A0009E4220D183004FF00F0C0CFA03F7BC439F
:1004B00005FA03FC4CEA040491F803C0BCF1280FD0
:1004C00006D14FF0010C0CFA00FCC2F814C00AE08F
:1004D00091F803C0BCF1480F05D14FF0010C0CFAA4
:1004E00000FCC2F810C0401C0828D1D31460B1F839
:1004F00000C0BCF1FF0F34DD546800202EE000F195
:10050000080C4FF0010808FA0CF3B1F800C00CEA2F
:1005100003069E4221D183004FF00F0C0CFA03F723
:10052000BC4305FA03FC4CEA040491F803C0BCF197
:10053000280F05D100F1080C08FA0CF8C2F8148055
:1005400091F803C0BCF1480F07D100F1080C4FF03F
:10055000010808FA0CF8C2F81080401C0828CED315
:100560005460BDE8F0814FF6FF7101800221817077
:100570000421C17070470246002093680B400BB104
:10058000012000E0002070470146886880B2704773
:1005900002460020D3680B400BB1012000E0002090
:1005A00070470146C86880B2704701617047416179
:1005B00070470AB1016100E041617047C160704756
:1005C0004FF480320A43826181618261826982696B
:1005D000704702460020434B18684FF6807318405E
:1005E00040EA021008433F4B186070473E49C8611B
:1005F0007047F0B50A46002300240021002500F0D2
:100600000046B6F1004F02D1364EF16901E0354E99
:100610007168C0F3034583B200F44016B6F5401F7D
:1006200008D121F070612F4E766826F070662D4F4C
:100630007E6012E000F48016B6F5801F06D1032616
:1006400006FA05F4A14341F0706106E0460D36015B
:1006500003FA06F6B14341F0706122B1460D36014E
:1006600003FA06F6314300F00046B6F1004F02D11E
:100670001C4EF16101E01B4E7160F0BD30B50022EF
:100680008B071C0F0F2303FA04F2164B08338C1050
:1006900053F824309343134C08348D1044F825301C
:1006A00023468C1053F824308C07240F00FA04F4EE
:1006B00023430C4C08348D1044F8253030BD0A49D2
:1006C000DC3108607047000000080140000C014068
:1006D000001001400014014000180140001C0140BE
:1006E000002001400000014000002042DF48006877
:1006F00040F00100DD49086008464068DC490840D8
:10070000DA49486008460068DA490840D749086075
:100710000846006820F4802008600846406820F4FD
:10072000FE0048604FF41F0088607047CF49096899
:1007300021F48031CD4A11601146096821F48021ED
:100740001160B0F5803F03D0B0F5802F0ED106E0E8
:10075000C649096841F48031C44A116007E0C349C1
:10076000096841F4A021C14A116000E000BF00BF48
:10077000704710B501460022002300204A11012ACB
:1007800002D1BA4C236806E0022A02D1B74C236A90
:1007900001E0B64C636A01F01F02012494401C4042
:1007A0000CB1012000E0002010BD38B50020009001
:1007B0000024002500BF3120FFF7DBFF054600982D
:1007C000401C00900098B0F5A06F01D0002DF2D031
:1007D0003120FFF7CEFF08B1012400E000242046BD
:1007E00038BD01460020A14A106820F0F80040EA18
:1007F000C10010607047A0490860704702460020A1
:100800009A4B586820F47C1042EA01031843974B36
:100810005860704798490866704701460020934A1F
:10082000506820F003000843506070478F484068CC
:1008300000F00C007047014600208C4A506820F000
:10084000F00008435060704701460020874A506816
:1008500020F4E06008435060704701460020834A5E
:10086000506820F4605040EAC1005060704729B1E0
:100870007E4A527A02437D4B5A7204E07B4A527A96
:1008800082437A4B5A7270477B49D831086070476F
:1008900001460020754A506820F4404008435060EB
:1008A00070470021714A20321170704A82F820107E
:1008B000012802D004280AD104E001216B4A203229
:1008C000117005E00521694A2032117000E000BF77
:1008D00000BF70476949086070476449096A01436D
:1008E000624A11627047654944390860704730B503
:1008F00000210022002400235C4D6D6805F00C01EE
:1009000021B1042905D0082923D105E05C4D0560FB
:1009100022E05B4D05601FE0544D6D6805F47012D8
:10092000524D6D6805F48034022505EB92421CB9E6
:10093000544D554305600BE04C4D6D6805F4003592
:100940001DB1504D5543056002E04D4D55430560C6
:1009500002E04B4D056000BF00BF444D6D6805F0DF
:10096000F0010909484D6B5C0568DD4045603F4D6D
:100970006D6805F4E061090A434D6B5C4568DD4034
:1009800085603A4D6D6805F46051C90A3E4D6B5C57
:100990004568DD40C560354D6D6805F44041890B03
:1009A0003A4D6B5CC568B5FBF3F5056130BD29B107
:1009B0002E4A526902432D4B5A6104E02B4A526978
:1009C00082432A4B5A61704729B1284A92690243EF
:1009D000264B9A6104E0254A92698243234B9A612F
:1009E000704729B1214AD2690243204BDA6104E001
:1009F0001E4AD26982431D4BDA61704729B11B4AF6
:100A0000D2680243194BDA6004E0184AD268824384
:100A1000164BDA60704729B1144A12690243134B2E
:100A20001A6104E0114A12698243104B1A6170473F
:100A300012494039086070470F49C86470470B4934
:100A4000C87170470948406A40F0807007494862A1
:100A5000704701460020054A92680A400AB1012009
:100A600000E0002070470149887270470010024082
:100A70000000FFF8FFFFF6FE000042428004424201
:100A800000127A0000093D00000000201000002044
:100A900010B50446FE48844208D10121C014FFF776
:100AA000ADFF0021E014FFF7A9FFC4E0B4F1804FCF
:100AB00008D101210846FFF7AEFF00210120FFF712
:100AC000AAFFB8E0F348844208D101210220FFF7D1
:100AD000A2FF00210220FFF79EFFACE0EE48844217
:100AE00008D101210420FFF796FF00210420FFF721
:100AF00092FFA0E0E948844208D101210820FFF7D5
:100B00008AFF00210820FFF786FF94E0E448844232
:100B100008D101211020FFF77EFF00211020FFF7F0
:100B20007AFF88E0DF48844208D101212020FFF7C6
:100B300072FF00212020FFF76EFF7CE0DA4884423C
:100B400008D101214014FFF759FF00216014FFF77D
:100B500055FF70E0D548844209D10121C804FFF750
:100B60004DFF00214FF40020FFF748FF63E0D0481D
:100B7000844209D101210805FFF740FF00214FF40D
:100B80008010FFF73BFF56E0CA48844209D101219B
:100B90004805FFF733FF00214FF40010FFF72EFF49
:100BA00049E0C548844208D101214020FFF733FFC6
:100BB00000214020FFF72FFF3DE0C048844208D1CC
:100BC00001218020FFF727FF00218020FFF723FF6E
:100BD00031E0BB48844208D101218015FFF71BFF9B
:100BE0000021A015FFF717FF25E0B648844209D180
:100BF00001210804FFF702FF00214FF48030FFF7C6
:100C0000FDFE18E0B048844209D101214804FFF7F5
:100C1000F5FE00214FF40030FFF7F0FE0BE0AB488B
:100C2000844208D101218804FFF7E8FE00214FF437
:100C30008020FFF7E3FE10BD00220288944B98420B
:100C40000ED0994B98420BD0B0F1804F08D0914B09
:100C5000984205D0904B984202D0904B984204D1D4
:100C60004FF68F731A404B881A438D4B984207D02A
:100C70008C4B984204D04FF6FF431A40CB881A435E
:100C800002808B8883850B880385814B98420BD02B
:100C9000854B984208D08B4B984205D08A4B98429E
:100CA00002D08A4B984201D10B7A038601238382BA
:100CB000704770B5002400220023058C4FF6FE76A5
:100CC00035400584028C8388048B4FF68F752C4049
:100CD000B51E2C400D882C43751E2A400D892A43D1
:100CE0004D882A436A4DA8420BD06F4DA84208D0C8
:100CF000744DA84205D0744DA84202D0734DA8424D
:100D000013D14FF6F7752A404D892A434FF6FB75EC
:100D10002A408D882A434FF6FF652B404FF6FF553A
:100D20002B408D892B43CD892B4383800483CD8831
:100D30008586028470BD70B5002400220023058CD6
:100D40004FF6EF7635400584028C8388048B48F695
:100D5000FF752C404FF6FF452C400D884FF6FF766F
:100D600006EA05252C434FF6DF752A400D8906EA71
:100D700005152A434D8806EA05152A43444DA84225
:100D800002D0494DA8421DD14FF67F752A404D89AA
:100D90004FF6FF7606EA05152A434FF6BF752A403F
:100DA0008D8806EA05152A434FF6FF352B404FF292
:100DB000FF752B408D8906EA85052B43CD8906EA10
:100DC00085052B4383800483CD880587028470BD0D
:100DD00070B5002400220023058C4FF6FF663540D5
:100DE0000584028C8388848B4FF68F752C404FF6D8
:100DF000FC752C400D882C434FF6FF552A400D8979
:100E00004FF6FF7606EA05252A434D8806EA0525B2
:100E10002A431F4DA84202D0234DA8421DD14FF2B4
:100E2000FF752A404D894FF6FF7606EA05252A43CD
:100E30004FF6FF352A408D8806EA05252A434EF6EF
:100E4000FF752B404DF6FF752B408D8906EA051581
:100E50002B43CD8906EA05152B4383808483CD88F7
:100E60008587028470BD70B5002200230024058CA4
:100E70004EF6FF7635400584038C8488828B48F6D5
:100E8000FF752A404FF6FF452A400D8820E00000FC
:100E9000002C01400004004000080040000C00400D
:100EA000001000400014004000340140004C01409C
:100EB000005001400054014000180040001C004058
:100EC0000020004000400140004401400048014033
:100ED0004FF6FF7606EA05252A434DF6FF752B40AF
:100EE0000D8906EA05352B434D8806EA05352B4367
:100EF000FA4DA84202D0FA4DA84208D14BF6FF7530
:100F00002C408D894FF6FF7606EA85152C438480A8
:100F10008283CD88A0F84050038470BD828B4FF24D
:100F2000FF331A408283828B4FF6FF7303EA01235B
:100F30001A4382837047F0B50C4615460022002103
:100F40000026078C4EF6FF7C07EA0C070784828B8D
:100F5000018C4FF6FF7707EA043640F6FF473A4028
:100F60004FF6FF7707EA05273A434FF6FF7707EA80
:100F700003373A43D94FB8420ED0D94FB8420BD0BD
:100F8000B0F1804F08D0D74FB84205D0D64FB84205
:100F900002D0D64FB84206D14DF6FF77394046F41D
:100FA0008057394305E047F6FF57394044F48057EE
:100FB000394382830184F0BD828B4FF6F3731A406C
:100FC0008283828B0A4382837047F0B50C461546B4
:100FD000002200210026078C4FF6FF6C07EA0C0761
:100FE0000784828B018C4FF6FF7707EA04264FF6C1
:100FF0000C773A404FF6FF7707EA03172F433A433F
:10100000B64FB8420ED0B64FB8420BD0B0F1804FB9
:1010100008D0B44FB84205D0B34FB84202D0B34F56
:10102000B84206D14FF6FF57394046F4807739432E
:1010300005E04FF2FF57394044F48077394382830B
:101040000184F0BD028B4FF2FF331A400283028B02
:101050004FF6FF7303EA01231A4302837047F0B58A
:101060000C461546002200210026078C4FF6EF7C27
:1010700007EA0C070784028B018C4FF6FF7707EA1B
:10108000041640F6FF473A404FF6FF7707EA03376A
:101090003A434FF6FF7707EA05273A438F4FB842A6
:1010A0000ED08F4FB8420BD0B0F1804F08D08D4F8B
:1010B000B84205D08C4FB84202D08C4FB84206D10E
:1010C0004FF6DF77394046F01007394305E04FF619
:1010D0005F77394044F01007394302830184F0BD43
:1010E000028B4FF6F3731A400283028B0A4302838A
:1010F0007047F0B50C46154600220021068C4FF6CD
:10110000FE773E400684028B018C4FF60C7632400F
:101110007E1C06EA03162E433243704EB0420ED0B8
:101120006F4EB0420BD0B0F1804F08D06D4EB04240
:1011300005D06D4EB04202D06C4EB04206D14FF693
:10114000FD76314044F00106314305E04FF6F57677
:10115000314044F00106314302830184F0BD70B593
:1011600005460C465D4885420ED05D4885420BD051
:10117000B5F1804F08D05B48854205D05A4885427A
:1011800002D05A48854200D100E000BF208850B903
:101190002389A28861882846FFF7ABFFE1882846AB
:1011A000FFF79EFF25E0208804280AD12389A28822
:1011B00061882846FFF753FFE1882846FFF742FF82
:1011C00017E0208808280AD12389A2886188284648
:1011D000FFF7FBFEE1882846FFF7EEFE09E02389D2
:1011E000A28861882846FFF7A6FEE1882846FFF717
:1011F00095FE70BD2DE9F04105460C4600260127FD
:10120000608808B9022600E00026A088012801D1E4
:10121000022700E001272088A0B92389A2886188DD
:101220002846FFF766FFE1882846FFF759FF238924
:101230003A4631462846FFF712FFE1882846FFF775
:1012400001FF13E02389A28861882846FFF707FF82
:10125000E1882846FFF7F6FE23893A4631462846BC
:10126000FFF747FFE1882846FFF73AFFBDE8F08126
:101270000A884B881A438B881A43CB881A430B89F8
:101280001A434B891A438B891A43A0F844207047AC
:101290004FF6FF71818000210180C1804180017281
:1012A00070470021018041808180C180018141819E
:1012B0008181C181704700210180418001218180AD
:1012C0000021C1800181704700210180418081801F
:1012D000C18001814181818170470000002C014063
:1012E000003401400004004000080040000C0040B1
:1012F00021B1028842F00102028004E002884FF628
:10130000FE731A400280704731B1B0F8442042F4B5
:101310000042A0F8442005E0B0F84420C2F30E02D9
:10132000A0F8442070471AB183890B43838102E0FF
:1013300083898B43838170478182704741EA02032E
:10134000A0F8483070471AB183890B43838102E0CB
:1013500083898B438381704701894FF6F87211406E
:10136000018170470A46002101894FF68F731940A9
:1013700011430181704730B504460D462946204689
:10138000FFF7F0FF208940F00700208130BD2DE9F4
:10139000F04104460D4616461F46602D06D13B46D9
:1013A000012231462046FFF75AFE05E03B46012266
:1013B00031462046FFF79DFE29462046FFF7D2FF23
:1013C000208940F007002081BDE8F08130B50C464F
:1013D00000210189C9B24FF6FF7505EA03251543BF
:1013E00025432943018130BD2DE9F04105460E46D4
:1013F00017469846002443463A4631462846FFF7AA
:10140000E5FF2C894FF6F870044044F007044FF6CE
:101410008F70044044F070042C81BDE8F081F0B579
:1014200004460D4616461F463B4632462946204690
:10143000FFF7CCFF208940F480402081F0BD01857A
:10144000828270470A46002101884FF68F73194047
:10145000114301807047F0B50C4615461E46002129
:10146000002200230189028B038C4FF6F877394064
:1014700021434FF6FC473A4040F201173A434FF6FA
:10148000DD773B404FF6FF7707EA06172F433B43D4
:10149000018102830384F0BD0A460021018B4FF6CF
:1014A0008F7319401143018370470A460021018B55
:1014B00048F6FF7319404FF6FF7303EA02231943FE
:1014C000018370470A460021818B4FF68F731940C4
:1014D0001143818370470A460021818B48F6FF73D0
:1014E00019404FF6FF7303EA0223194381837047C3
:1014F00021B1028842F08002028004E002884FF6A7
:101500007F731A400280704721B1828842F0040242
:10151000828004E082884FF6FB731A408280704715
:1015200021B1828842F00802828004E082884FF66E
:10153000F7731A408280704721B1828842F001021D
:10154000828004E082884FF6FE731A4082807047E2
:101550000A460021018B4FF6F773194011430183AE
:1015600070470A460021018B4FF2FF7319404FF676
:10157000FF7303EA02231943018370470A460021DF
:10158000818B4FF6F77319401143818370470A46E8
:101590000021818B4FF2FF7319404FF6FF7303EA6E
:1015A00002231943818370470A460021018B4FF6BD
:1015B000FB7319401143018370470A460021018BD8
:1015C0004FF6FF3319404FF6FF7303EA0223194326
:1015D000018370470A460021818B4FF6FB73194047
:1015E0001143818370470A460021818B4FF6FF33F8
:1015F00019404FF6FF7303EA0223194381837047B2
:101600000A460021018B4FF67F7319401143018375
:1016100070470A460021018BC1F30E014FF6FF739C
:1016200003EA02231943018370470A460021818B94
:101630004FF67F7319401143818370470A4600219A
:10164000818BC1F30E014FF6FF7303EA02231943A6
:10165000818370470A460021018C4FF6FD731940C3
:101660001143018470470A460021018C4FF6F7733D
:1016700019401143018470470A460021018C4FF63E
:10168000DF7319404FF6FF7303EA02131943018415
:1016900070470A460021018C4FF67F7319404FF6C0
:1016A000FF7303EA02131943018470470A460021BD
:1016B000018C4FF6FF5319404FF6FF7303EA0223E4
:1016C0001943018470470A460021018C4FF2FF73D1
:1016D00019404FF6FF7303EA022319430184704750
:1016E0000A460021018C4DF6FF7319404FF6FF7337
:1016F00003EA023319430184704730B50023012403
:101700008C40A3B2048C9C430484048C02FA01F53F
:10171000ADB22C43048430BD30B5002304248C408A
:10172000A3B2048C9C430484048C02FA01F5ADB28C
:101730002C43048430BD70B50346002000241846B5
:10174000183001258D40ACB21D8CA5431D8409B114
:10175000082909D100EB6100056825F070050560D6
:101760000568154305600EE00D1FC5F34E052844BE
:10177000056825F4E045056005684FF6FF7606EA42
:1017800002263543056070BD21B1028842F0020295
:10179000028004E002884FF6FD731A400280704711
:1017A00021B1028842F00402028004E002884FF670
:1017B000FB731A400280704721B1828842F0800298
:1017C000828004E082884FF67F731A4082807047DF
:1017D00002884FF6F7731A40028002880A4302809B
:1017E000704782884FF68F731A40828082880A433E
:1017F0008280704702894FF6F8731A40028102898D
:101800000A430281704702894FF67F731A400281B2
:1018100002890A430281704781847047818570473D
:10182000818670470187704781877047A0F8401014
:10183000704702884FF6FF431A40028002880A432D
:10184000028070470146888E70470146088F7047B6
:101850000146888F70470146B1F840007047014645
:10186000888C70470146088D704702460020138A15
:101870000B400BB1012000E000207047CA430282F8
:10188000704730B50246002000230024158A05EA7F
:101890000103958905EA010413B10CB1012000E0B0
:1018A000002030BDCA4302827047000010B50446D4
:1018B000FB48844209D101218803FFF79FF80021EA
:1018C0004FF48040FFF79AF832E0F648844209D19D
:1018D00001214804FFF79FF800214FF40030FFF783
:1018E0009AF825E0F048844209D101218804FFF7E5
:1018F00092F800214FF48020FFF78DF818E0EB48B4
:10190000844209D10121C804FFF785F800214FF472
:101910000020FFF780F80BE0E548844208D1012160
:101920000805FFF778F800214FF48010FFF773F8EF
:1019300010BD2DE9F04786B005460E460024A246AC
:1019400000BFA1460027B08900B100BF2F462C8AF6
:101950004CF6FF700440F08804432C82AC894EF6AC
:10196000F3100440B0883189084371890843044367
:10197000AC81AC8A4FF6FF400440B0890443AC828E
:1019800001A8FEF7B4FFC648874202D1DDF810A0D7
:1019900001E0DDF80CA0A88900F4004040B10AEB9A
:1019A000CA0000EB0A1031684900B0FBF1F807E00B
:1019B0000AEBCA0000EB0A1031688900B0FBF1F8AD
:1019C0006420B8FBF0F004012009642101FB1089B8
:1019D000A88900F4004040B1322000EBC900B0FB00
:1019E000F1F000F00700044308E0322000EB09109A
:1019F0006421B0FBF1F000F00F0004432C8106B02D
:101A0000BDE8F0874FF41651016000218180C1804C
:101A100001810C21418100218181704710B502466E
:101A20000020108A4FF2FF0318400B884C88234394
:101A30008C882343CC8823431843108210BD002197
:101A4000018041808180C180704721B1828942F448
:101A50000052828104E082894DF6FF731A40828130
:101A60007047F0B50346002400260025002040F60C
:101A70006A17B94200D100BF1846C1F3421401F001
:101A80001F06012707FA06F5012C01D10C3004E0EE
:101A9000022C01D1103000E014301AB107682F4336
:101AA000076002E00768AF430760F0BD1AB1838AA0
:101AB0000B43838202E0838A8B4383827047028ACE
:101AC0004FF6F0731A400282028A0A43028270477C
:101AD00082894FF2FF731A40828182890A43828190
:101AE000704721B1828942F00202828104E082893A
:101AF0004FF6FD731A4082817047028A4FF6DF73FA
:101B00001A400282028A0A430282704721B1028A85
:101B100042F48042028204E0028A4BF6FF731A40CC
:101B200002827047C1F308028280704701468888AC
:101B3000C0F308007047818941F00101818170473D
:101B4000028BD2B20283028B42EA012202837047E7
:101B5000028B02F47F420283028B0A4302837047A6
:101B600021B1828A42F02002828204E0828A4FF60A
:101B7000DF731A408282704721B1828A42F01002DC
:101B8000828204E0828A4FF6EF731A4082827047A5
:101B900021B1828A42F00802828204E0828A4FF6F2
:101BA000F7731A408282704721B1828942F4004261
:101BB000828103E08289C2F30E028281704721B1E3
:101BC000828A42F40062828204E0828A4FF2FF73CA
:101BD0001A4082827047828A4FF6FB731A408282D3
:101BE000828A0A438282704721B1828A42F00202CD
:101BF000828204E0828A4FF6FD731A408282704727
:101C000002460020B1F5007F00D100BF13880B40D1
:101C10000BB1012000E00020704701F40072B2F522
:101C2000007F00D100BFCA430280704770B50246F2
:101C3000002400230025002040F66A16B14200D19E
:101C400000BFC1F3421501F01F03012606FA03F39A
:101C5000012D02D19689334006E0022D02D1168A69
:101C6000334001E0968A33400C12012606FA04F450
:101C70001688344013B10CB1012000E0002070BD83
:101C800010B50022002340F66A14A14200D100BF23
:101C90000A1201249440A3B2DC43048010BD00006A
:101CA000003801400044004000480040004C004023
:101CB0000050004010B56FF00400FEF74AFB2E48BC
:101CC00000682E49B0FBF1F02D49087008460078F5
:101CD00000EB4001C1EBC0104FF6FF7101EAC000FC
:101CE0002849088010BD0146254A12784A434FF022
:101CF000E0235A6100229A611A46126942F00102F9
:101D00001A6100BF4FF0E022106900F001021AB121
:101D100000F48032002AF5D04FF0E022126922F060
:101D200001024FF0E0231A6100229A6170470146D8
:101D3000144A12884A434FF0E0235A6100229A6104
:101D40001A46126942F001021A6100BF4FF0E02208
:101D5000106900F001021AB100F48032002AF5D0B7
:101D60004FF0E022126922F001024FF0E0231A61E5
:101D700000229A61704700001800002000127A00CB
:101D8000140000201600002010B586B00446012182
:101D90000420FEF719FE01218803FEF715FE182026
:101DA0008DF817004FF40070ADF8140003208DF883
:101DB000160005A96B48FEF74BFB04208DF81700B1
:101DC0000002ADF8140003208DF8160005A965483F
:101DD000FEF73EFB01940020ADF810000C20ADF89A
:101DE0000E000020ADF80C00ADF80A00ADF80800B8
:101DF00001A95D48FFF79DFD01215B48FFF725FE26
:101E0000012240F225515848FFF72BFE25208DF87E
:101E1000000001208DF8030000208DF80100022051
:101E20008DF802006846FEF74AFA06B010BD10B5FC
:101E300086B0044601210420FEF7C6FD01214804B6
:101E4000FEF7CFFD18208DF817000420ADF8140020
:101E500003208DF8160005A94248FEF7F9FA042080
:101E60008DF817000820ADF8140003208DF8160037
:101E700005A93C48FEF7ECFA01940020ADF81000EB
:101E80000C20ADF80E000020ADF80C00ADF80A00F3
:101E9000ADF8080001A93548FFF74BFD0121334893
:101EA000FFF7D3FD012240F225513048FFF7D9FD5D
:101EB00026208DF8000001208DF8030000208DF809
:101EC00001008DF802006846FEF7F9F906B010BD72
:101ED0002DE9F04107460C46154600260DE014F8A2
:101EE000011B3846FFF71EFE00BF40213846FFF7B2
:101EF00087FE0028F9D0701C86B2AE42EFDBBDE849
:101F0000F0810FB430B5CBB0054601AC50A80090BD
:101F10004FF4947101A8009B4F9A04F0CBF8002075
:101F200000900BE014F8011B2846FFF7FBFD00BFF3
:101F300040212846FFF764FE0028F9D020780028C9
:101F4000F0D14BB030BC5DF814FB10B540F2255118
:101F50000548FFF76BFE18B120210348FFF75DFE2F
:101F600010BD00000008014000380140004400405E
:101F700008B501210820FEF727FD48208DF8030051
:101F80004FF47040ADF8000069460748FEF760FA6C
:101F900008BD10B504462CB9C820FFF7C8FE0CB91F
:101FA000012010BD0020FCE7000C01401FB50121FD
:101FB0000846FEF716FD4FF08040FFF7CDF90020F0
:101FC000ADF80A00ADF8060040F2CF70ADF8080099
:101FD00040F60F60ADF8040000208DF80C0001A958
:101FE0004FF08040FEF728FE01218807FFF746FCEE
:101FF000012211469007FFF796F94FF4A060FEF713
:1020000059F91C208DF8000001208DF803000220F2
:102010008DF8010001208DF802006846FEF74FF9A7
:1020200000214FF08040FFF763F91FBDFFF742FE2C
:1020300001F0CCF8FFF79CFF4FF41650FFF7A4FE19
:102040004FF4E130FFF7F3FE02F0D5FC03F0A4FFFC
:10205000FFF7ACFF03F0DAF803F084FA03F092FA2A
:1020600003F09BFA03E000F049FD00F085FCFAE77D
:1020700010B501218807FFF704FC012807D10448A7
:10208000006803F023FE01218807FFF70BFC10BD59
:102090009C040020704700BFFEE700BFFEE700BFC2
:1020A000FEE700BFFEE77047704770477047704714
:1020B0000CB50020019000906C48006840F480301E
:1020C0006A49086000BF6948006800F40030009069
:1020D0000198401C0190009818B90198B0F5A06FC4
:1020E000F1D16248006800F4003010B10120009086
:1020F00001E0002000900098012843D15C4800686E
:1021000040F010005A4908600846006820F00300BB
:1021100008600846006840F00200086053484068C4
:10212000524948600846406848600846406840F4A4
:10213000806048600846406820F47C10486008468B
:10214000406840F4E81048600846006840F080703D
:10215000086000BF4548006800F000700028F9D012
:102160004248406820F00300404948600846406803
:1021700040F00200486000BF3C48406800F00C009E
:102180000828F9D10CBD10B5FFF792FF10BD10B5AE
:102190003648006840F0010034490860084640684D
:1021A00034490840314948600846006832490840CF
:1021B0002E4908600846006820F480200860084620
:1021C000406820F4FE0048604FF41F008860FFF76D
:1021D000DAFF4FF000602949086010BD10B50021FA
:1021E00000200022214B5B6803F00C0121B104297F
:1021F00006D0082928D107E0214B224C236027E094
:102200001F4B204C236023E0184B5B6803F47010D5
:10221000164B5B6803F48032022303EB904022B933
:10222000194B4343174C23600DE0104B5B6803F4DC
:10223000003323B1144B4343124C236003E0104B93
:102240004343104C236003E00D4B0E4C236000BF52
:1022500000BF064B5B68C3F303130C4CE15C094BF6
:102260001B68CB40074C236010BD000000100240EB
:10227000002002400000FFF8FFFFF6FE08ED00E03E
:1022800000127A001800002000093D001C00002008
:1022900010B500F089FFF8A308221E21084601F0BE
:1022A000A3FB00F06FFF10BD10B500218E2002F0DF
:1022B00020F9002407E0F24A115DF24A105D02F0B5
:1022C00018F9601CC4B2072CF5DB80218E2002F0C7
:1022D00010F910BD00B589B0002007900890069055
:1022E00005900490039002900190FFF7DDFF02F04B
:1022F00004FAE54800788DF81C00E34840788DF832
:102300001D00E14880788DF81E00DF48C0788DF808
:102310001F00DE4800788DF81800DB4840798DF802
:102320001400D94880798DF81500D748007A8DF8C7
:102330001000D548407A8DF81100D54800788DF806
:102340000C00D34840788DF80D00D148C0788DF846
:102350000800CF4800798DF80900CD4880798DF8C4
:102360000400CB48C0798DF8050000F01DFFC9A31B
:1023700006220021084601F037FBC84800780228F1
:1023800008D107A8C6A30622072100901E2001F04D
:102390002BFB07E007A8C2A306220721009000201C
:1023A00001F022FBBD480078042808D105A8BEA38F
:1023B00006220F2100901E2001F016FB07E005A861
:1023C000B9A306220F210090002001F00DFBB348B5
:1023D0000078082808D104A8B6A306221721009087
:1023E0001E2001F001FB07E004A8B2A3062217217A
:1023F0000090002001F0F8FAA8480078102808D1D1
:1024000006A8AEA306221F2100901E2001F0ECFAC0
:1024100007E006A8A9A306221F210090002001F0D2
:10242000E3FA9E480078202808D103A8A5A3062235
:10243000272100901E2001F0D7FA07E003A8A1A3EE
:10244000062227210090002001F0CEFA9348007860
:10245000402808D102A89DA306222F2100901E200B
:1024600001F0C2FA07E002A898A306222F210090EB
:10247000002001F0B9FA89480078802808D101A825
:1024800095A30622372100901E2001F0ADFA07E047
:1024900001A891A3062237210090002001F0A4FAA0
:1024A00000F070FE09B000BD38B501218807FEF7C5
:1024B0001FFF03F08FFD00F077FE8AA2002108467F
:1024C00001F048FA8948006889A308220021009099
:1024D000322001F089FA85480068052805DD85A2CB
:1024E0001421002001F036FA04E086A21421002015
:1024F00001F030FA00F046FE7C4887A10268894866
:10250000FFF7FFFC4FF480518748FEF734F804468C
:10251000FFF73FFD10B100207449086038BD00B5D9
:1025200089B00020079008900690059004900390D1
:102530000290019002F0D3F802F0DFF852480078E0
:102540008DF81C00504840788DF81D004E4880786A
:102550008DF81E004C48C0788DF81F004B4800785D
:102560008DF81800484840798DF814004648807965
:102570008DF815004448007A8DF810004248407AE2
:102580008DF81100424800788DF80C0040484078E2
:102590008DF80D003E48C0788DF808003C48007961
:1025A0008DF809003A4880798DF804003848C079E0
:1025B0008DF8050000F0F8FD36A30622002108463C
:1025C00001F012FA07A836A3062207210090002086
:1025D00001F00AFA05A834A306220F21009000207A
:1025E00001F002FA04A833A306221721009000206C
:1025F00001F0FAF906A831A306221F21009000205D
:1026000001F0F2F903A82FA3062227210090002051
:1026100001F0EAF902A82DA306222F210090002044
:1026200001F0E2F901A82CA3062237210090002036
:1026300001F0DAF900F0A6FD18480078102877D0EC
:1026400008DC01280DD0022878D0042872D0082890
:1026500071D189E020286FD040286ED080286AD1BF
:10266000AEE0324808230F2200210090642000F0E1
:1026700081FF00F087FDB9E0C4E3BAC300000000A9
:102680003E04002037040020460400205A040020A5
:10269000510400206261636B000000002F000020E5
:1026A000596561723A2573004D6F6E74683A2573EF
:1026B000000000004461793A257300005765656B9E
:1026C0003A257300486F75723A2573004D696E752F
:1026D00074653A25730000005365636F6E643A2594
:1026E00073000000B2BDCAFDA3BA0000A40400201C
:1026F00025640000BDA8D2E9A3BAD0E8D2AAB2B935
:10270000CBAE0000BDA8D2E9A3BAD5FDB3A3D4CB0C
:10271000B6AFD6D000000000B2BDCAFD2533640DAF
:102720000A00000000380140000C014035AB0008F1
:1027300025E003E00DE04EE02CE036E0BE48082343
:102740000F2207210090642000F014FF00F01AFD12
:102750004CE0B94808230F2211460090642000F095
:1027600009FF00F00FFD41E0B34808230F221721B5
:102770000090642000F0FEFE00F004FD36E0AE485C
:1027800008230F221F210090642000F0F3FE00F0C8
:10279000F9FC2BE0A84808230F2227210090642091
:1027A00000F0E8FE00F0EEFC20E0A34808230F2232
:1027B0002F210090642000F0DDFE00F0E3FC15E026
:1027C0009D4808230F2237210090642000F0D2FE9C
:1027D00000F0D8FC0AE0984808230F22002100905E
:1027E000642000F0C7FE00F0CDFC00BF00BF09B0C0
:1027F00000BD08B502F007F902F045F900F0D4FC7D
:102800008EA20021084601F0A5F8AFF224120021A3
:102810001E2001F09FF88B48AFF2641308220021BC
:102820000090282001F0E0F887A200214B2001F061
:1028300091F886498648006806F0E4FA0AD285A233
:102840001421002001F086F887A22821002001F041
:1028500081F809E087A21421002001F07BF88AA208
:102860002821002001F076F800F08CFC754A89A13F
:102870008B48FFF746FB08BD10B5002400BF09E0F8
:1028800001E002F0C3FE20218648FDF774FE002817
:10289000F7D0641C802CF3DB02F0F4FB10BD10B504
:1028A00001F01DFF01F029FF00F07EFC08237E4AA5
:1028B0000321142000F017FF08237C4A17211E2053
:1028C00000F011FF7AA22B212C2001F043F80823FD
:1028D000784A2B21402000F006FF00F053FC10BD89
:1028E00008B500F061FC74483C231A4602210090B0
:1028F000222000F03FFE00F045FC08BD08B500F0C6
:1029000053FC6E483C231A4602210090222000F01E
:1029100031FE00F037FC08BD08B500F045FC684802
:102920003C231A4602210090222000F023FE00F0F2
:1029300029FC08BD08B500F037FC62483C231A4664
:1029400002210090222000F015FE00F01BFC08BDC3
:1029500008B500F029FC5C4840238022002100904B
:10296000084600F007FE102380222021002000F0FE
:102970003DFD00F007FC08BD10B554480078012863
:1029800025D153480078012802D1FFF7E1FF51E03B
:102990004F480078022802D1FFF7CCFF4AE04C48AC
:1029A0000078032802D1FFF7B7FF43E048480078DA
:1029B000042802D1FFF7A2FF3CE045480078052833
:1029C00002D1FFF78DFF35E0FFF762FC32E03F48B0
:1029D0000078022825D13E480078012802D1FFF76F
:1029E0005EFF27E03A480078022802D1FFF744FF53
:1029F00020E037480078032802D1FFF7FAFE19E0FB
:102A000033480078042802D1FFF789FD12E03048EE
:102A10000078052802D1FFF747FD0BE0FFF738FCEF
:102A200008E02A480078032802D1FFF753FC01E0B0
:102A3000FFF72EFC10BD000035AB0008CEC2B6C8B3
:102A4000000000005C040020A1E600000000F84146
:102A500064040020BDA8D2E9A3BACCECC6F8BDCF6F
:102A6000C1B9A3AC00000000B6E0B4A9D2C2B7FE61
:102A700000000000BDA8D2E9A3BACCECC6F8BDCFD7
:102A8000C8C8A3AC00000000C9D9B4A9D2C2B7FE1F
:102A900000000000CEC2B6C8A3BA25730D0A00001C
:102AA00000380140000C0140460400205104002081
:102AB000D6DC00005A040020B5A3000895A5000844
:102AC00075A7000855A90008300000202C00002040
:102AD0002D000020FD48007818B90520FB4908703A
:102AE0000BE0FA480078062803D10120F749087066
:102AF00003E0F6480078F5490870704770B5F4486F
:102B00000078012830D1C103F248FDF734FD0446B6
:102B1000FFF73FFA012807D1EC480078401EEB4947
:102B20000870FFF7D7FF73E24FF48041E948FDF7E3
:102B300022FD0446FFF72DFA012807D1E34800786B
:102B4000401CE2490870FFF7C5FF61E24FF40051F5
:102B5000E048FDF710FD0446FFF71BFA0128E2D11B
:102B60000220DB49087053E2D9480078022851D18D
:102B7000D648007804283BD14103D648FDF7FBFC3A
:102B80000446FFF706FA012809D1D3480078C001AE
:102B9000D149097840EA6100CF49087038E24FF422
:102BA0008041CC48FDF7E7FC0446FFF7F2F9012825
:102BB00009D1C9480078C011C749097840EA4100E5
:102BC000C549087024E24FF40051C248FDF7D3FC18
:102BD0000446FFF7DEF90128A5D1BF480078012897
:102BE00002D1BB49087013E20320B94908700FE213
:102BF0004FF40051B748FDF7BEFC0446FFF7C9F992
:102C0000012802D1B249087002E2B1480078B04907
:102C10000870FDE1AE480078032884D14FF40051DC
:102C2000AC48FDF7A8FC0446FFF7B3F9012803D12F
:102C30000220A7490870EBE1A748007802283AD1A2
:102C40000024A64A9079C21700EB12721211A0EB71
:102C50000212A24B9979CB1701EB13731B1103EBF3
:102C6000830302EB4302D4B24FF400419948FDF7CD
:102C700082FC0546FFF78DF9012802D1601CC4B221
:102C80000DE04FF480419348FDF775FC0546FFF7D2
:102C900080F9012802D1601EC4B200E000BF0A2002
:102CA00094FBF0F100FB114194FBF0F001EB0010FC
:102CB0008A498871ACE188480078042843D100240F
:102CC000864A1079C21700EB12721211A0EB0212A1
:102CD000824B1979CB1701EB13731B1103EB8303A1
:102CE00002EB4302D4B24FF400417A48FDF743FCB3
:102CF0000546FFF74EF9012802D1601CC4B20DE071
:102D00004FF480417348FDF736FC0546FFF741F963
:102D1000012802D1601EC4B200E000BF012C0DDB0F
:102D20000C2C0BDC0A2094FBF0F100FB114194FB0E
:102D3000F0F001EB00106949087103E06748007981
:102D40006649087164E164480078082843D100248A
:102D5000624AD078C21700EB12721211A0EB021275
:102D60005E4BD978CB1701EB13731B1103EB830375
:102D700002EB4302D4B24FF400415648FDF7FBFB8F
:102D80000546FFF706F9012802D1601CC4B20DE028
:102D90004FF480414F48FDF7EEFB0546FFF7F9F889
:102DA000012802D1601EC4B200E000BF012C0DDB7F
:102DB0001F2C0BDC0A2094FBF0F100FB114194FB6B
:102DC000F0F001EB00104549C87003E04348C078BB
:102DD0004249C8701CE140480078102843D10024C3
:102DE0003E4A5079C21700EB12721211A0EB021288
:102DF0003A4B5979CB1701EB13731B1103EB830388
:102E000002EB4302D4B24FF400413248FDF7B3FB6A
:102E10000546FFF7BEF8012802D1601CC4B20DE0E0
:102E20004FF480412B48FDF7A6FB0546FFF7B1F8AC
:102E3000012802D1601EC4B200E000BF012C0DDBEE
:102E4000072C0BDC0A2094FBF0F100FB114194FBF2
:102E5000F0F001EB00102149487103E01F48407970
:102E60001E494871D4E01C48007820284ED1002427
:102E70001A4A9078C21700EB12721211A0EB0212DC
:102E8000164B9978CB1701EB13731B1103EB8303DC
:102E900002EB4302D4B24FF400410E48FDF76BFB46
:102EA0000546FFF776F8012802D1601CC4B218E08D
:102EB0004FF480410748FDF75EFB0546FFF769F8D0
:102EC00001280DD1601EC4B20BE000002D000020CF
:102ED0002C000020000C01402F0000203E040020A8
:102EE00000BF012C0DDB182C0BDC0A2094FBF0F149
:102EF00000FB114194FBF0F001EB00104549887094
:102F000003E0444880784349887081E04248007873
:102F100040283AD100243F4A5078C21700EB127281
:102F20001211A0EB02123B4B5978CB1701EB137334
:102F30001B1103EB830302EB4302D4B24FF40041B5
:102F40003648FDF718FB0546FFF723F8012802D1A4
:102F5000601CC4B20DE04FF480413048FDF70BFB1C
:102F60000546FFF716F8012802D1601EC4B200E042
:102F700000BF0A2094FBF0F100FB114194FBF0F03C
:102F800001EB00102349487042E023480078802874
:102F90003AD100241F4A1078C21700EB12721211A6
:102FA000A0EB02121B4B1978CB1701EB13731B110B
:102FB00003EB830302EB4302D4B24FF40041174802
:102FC000FDF7D9FA0546FEF7E4FF012802D1601C9F
:102FD000C4B20DE04FF480411048FDF7CCFA05462D
:102FE000FEF7D7FF012802D1601EC4B200E000BF87
:102FF0000A2094FBF0F100FB114194FBF0F001EB8F
:1030000000100449087003E005480078044908707E
:1030100070BD00003E0400202F000020000C014085
:103020002C00002010B5044622464FF48071FD4864
:10303000FDF7BFFA10BD10B5044622464FF40071EB
:10304000F848FDF7B6FA10BD38B5002406E00025B3
:1030500000E06D1CB5F57A7FFBD3641CB4F57A7F74
:10306000F5D301210820FDF7AFFC14208DF80300F3
:1030700003208DF802004FF48070ADF8000069461F
:10308000E848FDF7E5F94FF40070ADF80000694637
:10309000E448FDF7DDF90120FFF7C4FF0120FFF749
:1030A000CAFF38BD10B50120FFF7C5FF0120FFF7AB
:1030B000B9FF0020FFF7BFFF0020FFF7B3FF10BDEF
:1030C00010B50020FFF7B7FF0120FFF7ABFF01208D
:1030D000FFF7B1FF10BD70B50546002411E0802157
:1030E0002141294009B1012100E000210846FFF7F4
:1030F000A2FF0120FFF796FF0020FFF793FF601C5F
:10310000C4B2082CEBDB0120FFF78CFF0020FFF797
:1031100089FF70BD10B50446FFF7C4FF7820FFF7A4
:10312000DAFF0020FFF7D7FF2046FFF7D4FFFFF7B5
:10313000C7FF10BD70B505460E46FFF7B3FF7820F8
:10314000FFF7C9FF4020FFF7C6FF002404E0285D19
:10315000FFF7C1FF601CC4B2B442F8DBFFF7B0FF59
:1031600070BD70B505460C4645F0B000FFF7D2FFC4
:10317000102141EA1410FFF7CDFF04F00F00FFF714
:10318000C9FF70BD10B500240BE000212046FFF7F9
:10319000E8FFA54901EBC4108021FFF7CBFF601CBD
:1031A000C4B2082CF1DB10BD00200CE0002106E0C9
:1031B00000229D4B03EBC0135A544A1CD1B2802904
:1031C000F6DB421CD0B20828F0DB704710B5FFF7E1
:1031D0003BFFAE20FFF79EFFD520FFF79BFF80202F
:1031E000FFF798FFA820FFF795FF3F20FFF792FF1A
:1031F000D320FFF78FFF0020FFF78CFF4020FFF761
:1032000089FFA120FFF786FFC820FFF783FFDA20A0
:10321000FFF780FF1220FFF77DFF8120FFF77AFF85
:10322000CF20FFF777FFD920FFF774FFF120FFF7DA
:1032300071FFDB20FFF76EFF3020FFF76BFFA4204C
:10324000FFF768FFA620FFF765FF8D20FFF762FFFD
:103250001420FFF75FFFAF20FFF75CFFFFF7A4FF2D
:10326000FFF790FF10BD10B50246012000E050436B
:103270000B1EA1F10101FAD110BD2DE9F043054665
:103280000C461F46079E4FF0000C00216B1E34E0D9
:1032900032F91100B04201DD012000E0002032F9D6
:1032A0001380B04502DD4FF0010801E04FF0000847
:1032B00040451FD034F9130034F91180A0EB080009
:1032C00032F91180A6EB080800FB08F032F91380F0
:1032D00032F91190A8EB090890FBF8F034F911804D
:1032E0004044B84206DDBCF1000F01D1012000E0EE
:1032F000002084460B46481C01B2A942C8DB0CF0F2
:10330000FF00BDE8F0832DE9FF4F87B08B461446E0
:103310009946079805F0E7F805460E46584605F029
:10332000E2F807462A46334604F0B2FC3F4A404BD7
:10333000CDE9000104F0E6FE00223E4BCDE902019A
:1033400005F038F9CDE9040105F070F80FFA80FABC
:103350004C4507DAA2450BDBCA4509DC01200BB05E
:10336000BDE8F08FA24501DACA4501DC0120F6E78D
:103370000020F4E72DE9F04105460C461746984633
:103380007F2D01DDBDE8F0813F2C00DDFAE7E81973
:10339000802802DDC5F18000C7B204EB0800402898
:1033A00003DDC4F1400000F0FF082046E11704EB04
:1033B0005171C1F3C7060CE029463046FFF7D1FE34
:1033C000194901EBC61148193946FFF7B3FE701CC5
:1033D000C6B204EB0801481EC11700EB517101226F
:1033E00002EBE101B142E7DC00BFCBE72DE9F0439E
:1033F00004460D4616461F467F2C01DDBDE8F083CE
:103400003F2D00DDFAE7A119802902DDC4F180011A
:10341000CEB2E919402902DDC5F14001CFB22846FC
:103420003BE00000000C0140A80400201F85EB5188
:10343000B81E094000806640234629E04FEAE07C40
:1034400000EB5C7C4FEAEC0CDFF8588408EBCC1CFA
:103450001CF803C002464FEAE07800EB58784FEAC8
:10346000E808A0EBC8094FF0010808FA09F82CEAAF
:10347000080C01464FEAE07800EB58784FEAE8087C
:10348000DFF8209409EBC81808F803C0591CCBB228
:10349000A1199942D2DC411CC8B2E9198142CBDCA6
:1034A00000BFABE7002011E000210BE0FD4A02EB7A
:1034B000C012525C82F0FF02FA4B03EBC0135A5465
:1034C0004A1CD1B28029F1DB421CD0B20828EBDBC8
:1034D00070472DE9F04304460D4616461F467F2CE3
:1034E00001DDBDE8F0833F2D00DDFAE7A119802959
:1034F00002DDC4F18001CEB2E919402902DDC5F137
:103500004001CFB2284630E0234629E04FEAE07C74
:1035100000EB5C7C4FEAEC0CDFF8888308EBCC1CFA
:103520001CF803C002464FEAE07800EB58784FEAF7
:10353000E808A0EBC8094FF0010808FA09F88CEA7E
:10354000080C01464FEAE07800EB58784FEAE808AB
:10355000DFF8509309EBC81808F803C0591CCBB228
:10356000A1199942D2DC411CC8B2E9198142CBDCD5
:1035700000BFB6E72DE9F04707460C46904699464E
:10358000DDF820A07F2F01DDBDE8F0873F2C00DDB6
:10359000FAE74B46424621463846FFF727FF00250B
:1035A00070E0002669E0B8197F2800DD67E0E117C8
:1035B00004EB517105EBE101072900DDE4E720464A
:1035C000E21704EB527205EBE202B64B03EBC212B8
:1035D000BB19D25C2146E31704EB5373DB10A4EB59
:1035E000C30305FB086C1AF80CC00CFA03FC42EA92
:1035F0000C02E31704EB537305EBE303DFF8A4C2FB
:103600000CEBC31307EB060C03F80C20E11704EBDB
:10361000517105EBE101491C072900DD2BE0204633
:10362000E21704EB527205EBE202521C9D4B03EBD6
:10363000C212BB19D25C2146E31704EB5373DB10B3
:10364000A4EBC303C3F1080305FB086C1AF80CC014
:103650004CFA03FC42EA0C02E31704EB537305EB4C
:10366000E3035B1CDFF83CC20CEBC31307EB060C57
:1036700003F80C2000BF701CC6B2464593DB00BFA8
:10368000681CC5B2A9F10100C11700EB51710122FC
:1036900002EBE101A94284DC00BF75E7F8B50646FC
:1036A0000F4614461D46082D0CD1A4F120007E497A
:1036B00001EB001010230822394600903046FFF736
:1036C00059FF0FE0062D0DD1A4F1200000EB4000C2
:1036D000764901EB40000823062239460090304627
:1036E000FFF748FFF8BD2DE9F0410646884615462C
:1036F0001F46002409E02A5D04FB0761C8B23B466F
:103700004146FFF7CBFF601CC4B2285D0028F2D110
:10371000BDE8F0812DE9F0470646894617461D466B
:10372000DDF82080002417E0281B411E0A20FFF747
:103730009AFDB7FBF0F00A21B0FBF1F201FB120099
:1037400000F1300A04FB0861C8B2434652464946BC
:10375000FFF7A4FF601CC4B2AC42E5DBBDE8F08714
:103760002DE9F04F80468A4615461E46DDF8249026
:10377000002D07DB4B462B2251464046FFF78EFFBC
:103780002F4606E04B462D2251464046FFF786FF66
:103790006F42002418E0301B411E0A20FFF763FD32
:1037A000B7FBF0F00A21B0FBF1F201FB120000F1CF
:1037B000300B611C01FB0981C8B24B465A46514689
:1037C000FFF76CFF601CC4B2B442E4DBBDE8F08FCD
:1037D0002DE9F04706468A4691461F46DDF82080CF
:1037E000002421E0381B411E1020FFF73CFDB9FBEF
:1037F000F0F000F00F050A2D0ADA05F13001CAB227
:1038000004FB0861C8B243465146FFF747FF09E091
:1038100005F13701CAB204FB0861C8B243465146FC
:10382000FFF73CFF601CC4B2BC42DBDBBDE8F087A5
:103830002DE9F0470646894617461D46DDF82080EB
:10384000002414E0281B411E0220FFF70CFDB7FBEB
:10385000F0F000F0010000F1300A04FB0861C8B28A
:10386000434652464946FFF719FF601CC4B2AC42BA
:10387000E8DBBDE8F0872DE9FF5F86B00746144618
:103880001D46DDF85080169E00221346204629462C
:1038900004F08EFF0CD833462B2238460799FFF7E9
:1038A000FDFE0DE0A80400205A9300084A99000884
:1038B00033462D2238460799FFF7F0FE85F0004584
:1038C0002046294604F0E2FD8246504604F022FEDE
:1038D00022462B46CDE9040104F0FAFF04460D46CA
:1038E0000A201599FFF7BFFC8146484604F012FEF6
:1038F00022462B46CDE9000104F05CFECDE9020131
:1039000004F086FACDE9040104F0C0FD8346BBFB58
:10391000F9F08244B919C8B2434652460096079955
:10392000FFF7F8FE08F1010101FB0671C8B233464A
:103930002E220799FFF7B2FE08F1020101FB067182
:10394000C8B200965A46159B0799FFF7E3FE0AB0E6
:10395000BDE8F09F2DE9FC478046894616460027C2
:103960000020019000253AE0705D01A9C855781C3F
:10397000C7B2022F31DB002700240CE0C4EBC401E6
:1039800001EB8101FE4A881801A902F0ADFB00B9E4
:103990000CE0601CC4B2C4EBC40101EB8101F84A25
:1039A0008818F8A102F0A0FB0028E7D100BFC4EB03
:1039B000C40000EB8000F2490844C01C05F1010A74
:1039C0000AEBDA714910491E08EB01110090C8B2E8
:1039D00010231A464946FFF7CDFD681CC5B2705D3D
:1039E0000028C1D1BDE8FC870FB470B58AB0054688
:1039F0000E46144612A8019002A8019A119902F0ED
:103A000047FB00200190234602AA31462846FFF7D3
:103A10006AFE0AB070BC5DF814FB70B503467F2BDC
:103A200000DD70BD3F2900DDFBE7CC1701EB5474CE
:103A3000E410D54D05EBC414E45C0A46CD1701EB48
:103A40005575ED10A1EBC5060125B5402C43084680
:103A5000CD1701EB5575ED10CB4E06EBC515EC54AB
:103A600000BFDEE770B502467F2A01DD002070BD91
:103A70003F2901DD0020FAE7CC1701EB5474E41074
:103A8000C14D05EBC414A45CCD1701EB5575ED10C9
:103A9000A1EBC5060125B5402C400CB10120E6E79D
:103AA0000020E4E72DE9FF4F86B0069F079EDDF872
:103AB0002080DDF824900020019000904E450FD129
:103AC000474502DDBA464746D0463C4605E0F1B2DE
:103AD000E0B2FFF7A2FF601C04B24445F7DD99E0B5
:103AE00047450FD14E4502DDB2464E46D1463546DA
:103AF00005E0E9B2F8B2FFF790FF681C05B24D454A
:103B0000F7DD87E0474505DDBA464746D046B24671
:103B10004E46D1464E4507DD704206B2C9F100005F
:103B20000FFA80F901200190A9EB0600A8EB07012C
:103B3000884207DDBA4637465646C246C846D14691
:103B400001200090A8EB070000B20590A9EB060049
:103B50000FFA80FB4FEA4B0000B203900598ABEBE5
:103B60000000400000B202900598C0EB4B0000B28C
:103B700004903C463546019838B1009828B162421D
:103B8000D1B2E8B2FFF749FF12E0019828B16A42CA
:103B9000D1B2E0B2FFF741FF0AE0009820B1E1B2F4
:103BA000E8B2FFF73AFF03E0E9B2E0B2FFF735FF12
:103BB0002EE0601C04B20498002805DADDE9031049
:103BC000084400B2049006E0681C05B2029904980B
:103BD000084400B20490019838B1009828B16242BC
:103BE000D1B2E8B2FFF719FF12E0019828B16A429A
:103BF000D1B2E0B2FFF711FF0AE0009820B1E1B2C4
:103C0000E8B2FFF70AFF03E0E9B2E0B2FFF705FF11
:103C10004445CEDB0AB0BDE8F08F2DE9F0470546FC
:103C20000E4617469846DDF820A0BAF1000F24D1C1
:103C30002C460CE031462046FFF7EFFE06EB08006D
:103C4000401EC1B22046FFF7E8FE601CC4B2E8196E
:103C5000A042EFDC34460BE021462846FFF7DDFEAC
:103C6000E919491EC8B22146FFF7D7FE601CC4B24D
:103C700006EB0800A042EFDC14E02C460FE0B14652
:103C800007E049462046FFF7C8FE09F1010000F0B1
:103C9000FF0906EB08004845F3DC601CC4B2E819D4
:103CA000A042ECDCBDE8F0872DE9FF4F87B0144659
:103CB0001D46DDE91467DDF81C80DDF82090DDF895
:103CC0001C80CDF81880DDF82090CB46DDF81C80F4
:103CD000ADF80C80ADF80E40ADF81060DDF8209026
:103CE000ADF80490ADF80650ADF80870169890B98C
:103CF0002B462246DDE90701FFF7D4FE3B4632465C
:103D0000DDE90701FFF7CEFE3B4632462946204655
:103D1000FFF7C8FE41E0444500DAA046464500DA18
:103D2000B0464D4500DAA9464F4500DAB946069837
:103D3000844200DD06940698864200DD06965D45C5
:103D400000DDAB465F4500DDBB46C24622E0CDF854
:103D5000149010E00598534601AA03A9009003208F
:103D6000FFF78BFA18B150460599FFF756FE0598F4
:103D7000401CC0B2059005985845EBDD06E00000F8
:103D8000849B000800000000A80400200AF1010044
:103D900000F0FF0A06988245D9DD0BB0BDE8F08F30
:103DA0002DE9F04F07460E4691469A46C9F1010BA0
:103DB00000254C463219D1B27A19D0B2FFF72DFE48
:103DC000321BD1B27A1BD0B2FFF727FE7219D1B2E3
:103DD0003A19D0B2FFF721FE721BD1B23A1BD0B212
:103DE000FFF71BFEBAF1000F0FD060420FFA80F808
:103DF00009E006EB0800C1B23846FFF70EFE08F1F5
:103E000001000FFA80F8A045F3DB75E0681C05B2ED
:103E1000BBF1000F05DA6800401C58440FFA80FB24
:103E200007E0601E04B2281B4000401C58440FFAF3
:103E300080FB3219D1B27A19D0B2FFF7EEFD7219B8
:103E4000D1B23A19D0B2FFF7E8FD321BD1B27A1BDA
:103E5000D0B2FFF7E2FD721BD1B23A1BD0B2FFF72E
:103E6000DCFD321BD1B27A19D0B2FFF7D6FD721B3E
:103E7000D1B23A19D0B2FFF7D0FD3219D1B27A1BC4
:103E8000D0B2FFF7CAFD7219D1B23A1BD0B2FFF718
:103E9000C4FDBAF1000F2FD060420FFA80F811E094
:103EA00006EB0802D1B27A19D0B2FFF7B6FD06EBE5
:103EB0000802D1B27A1BD0B2FFF7AFFD08F10100C2
:103EC0000FFA80F8A045EBDB68420FFA80F811E0AA
:103ED00006EB0802D1B23A1BD0B2FFF79EFD06EB0B
:103EE0000802D1B23A19D0B2FFF797FD08F10100EC
:103EF0000FFA80F8A845EBDBA54287DBBDE8F08F21
:103F00002DE9FF4F97B007460E469B46DDF864A0AB
:103F1000D94600254C46C9F1000004F0E4FA00221D
:103F2000FE4BCDE9080104F031F8CDE90C010AFBA4
:103F30000AF004F0D8FACDE90A01DDE90C2304F017
:103F400039FBCDE9100109FB09F004F0CCFACDE909
:103F50000E01DDE9102304F019F8CDE9120103F098
:103F6000E3FF15902498A8B160420FFA80F80FE0A3
:103F700006EB0800C1B23846FFF74FFD06EB08001C
:103F8000C1B23846FFF749FD08F101000FFA80F889
:103F9000A045EDDB3219D1B27A19D0B2FFF73DFD61
:103FA000321BD1B27A1BD0B2FFF737FD3219D1B232
:103FB0007A1BD0B2FFF731FD321BD1B27A19D0B2E1
:103FC000FFF72BFD5BE00021159804F01BFF0DD8D7
:103FD00009FB09F16A00D21C01FB02F004F0E6FEC5
:103FE0001390159904F096FD159014E009FB09F162
:103FF0006A00D21C51430AFB0AF26300C3F10203B8
:1040000002FB031004F0D2FE1390159904F082FD18
:104010001590601E04B2681C05B22498B8B16042C5
:104020000FFA80F811E006EB0802D1B27A19D0B28B
:10403000FFF7F3FC06EB0802D1B27A1BD0B2FFF710
:10404000ECFC08F101000FFA80F8A045EBDB321917
:10405000D1B27A19D0B2FFF7E0FC321BD1B27A1B91
:10406000D0B2FFF7DAFC3219D1B27A1BD0B2FFF727
:10407000D4FC321BD1B27A19D0B2FFF7CEFC204665
:1040800004F031FA0022A54BCDE90A0104F02CFC22
:10409000CDE90E010AFB0AF004F025FACDE90C0186
:1040A000DDE90E2304F086FACDE9120109FB09F1DE
:1040B0006A1C01FB02F004F016FACDE91001DDE9FB
:1040C000122304F03BFAFFF47EAF0AFB0AF101FB76
:1040D00009F101FB09F004F006FACDE910010AFB31
:1040E0000AF1621E514301FB02F004F0FCF9CDE934
:1040F0000C01284604F0F7F90022884BCDE90401B1
:1041000003F044FFCDE90801284604F0ECF9002251
:10411000824BCDE9000103F039FFCDE9040109FB31
:1041200009F004F0E0F9CDE90201DDE9042304F02F
:1041300041FACDE90601DDE9082304F03BFACDE9B7
:104140000A01DDE90C2303F021FFCDE90E01DDE9D1
:10415000102304F0C9FBCDE9120103F0E5FE149031
:104160005CE00021149804F04DFE15D809FB09F11C
:104170006A00921C51430AFB0AF26300C3F1030375
:1041800002FB031004F012FE1390149904F0C2FC19
:104190001490681C05B20DE00AFB0AF16200C2F13E
:1041A000030201FB02F004F001FE1390149904F0E5
:1041B000B1FC1490601E04B22498B8B160420FFAAA
:1041C00080F811E006EB0802D1B27A19D0B2FFF7FD
:1041D00024FC06EB0802D1B27A1BD0B2FFF71DFC1B
:1041E00008F101000FFA80F8A045EBDB3219D1B2DB
:1041F0007A19D0B2FFF711FC321BD1B27A1BD0B2C0
:10420000FFF70BFC3219D1B27A1BD0B2FFF705FCD5
:10421000321BD1B27A19D0B2FFF7FFFB002CA0DC21
:104220001BB0BDE8F08F2DE9F05F07460E469146C2
:104230009B46C9F1010A00254C465A4621462846AC
:104240000A9BFFF760F828B13219D1B27A19D0B2BF
:10425000FFF7E3FB5A46604201B2684200B20A9B94
:10426000FFF751F828B1321BD1B27A1BD0B2FFF759
:10427000D4FB5A46294620460A9BFFF744F828B14A
:104280007219D1B23A19D0B2FFF7C7FB5A46684249
:1042900001B2604200B20A9BFFF735F828B1721BE9
:1042A000D1B23A1BD0B2FFF7B8FB0B98B0B1604265
:1042B0000FFA80F810E05A46414600200A9BFFF7AB
:1042C00022F828B106EB0800C1B23846FFF7A5FB7B
:1042D00008F101000FFA80F8A045ECDBD6E0681C7D
:1042E00005B2BAF1000F05DA6800401C50440FFA1D
:1042F00080FA07E0601E04B2281B4000401C5044B6
:104300000FFA80FA5A46214628460A9BFEF7FBFF21
:1043100040B13219D1B27A19D0B201E00000E03FC9
:10432000FFF77BFB5A46294620460A9BFEF7EBFF28
:1043300028B17219D1B23A19D0B2FFF76EFB5A46C2
:10434000604201B2684200B20A9BFEF7DCFF28B16E
:10435000321BD1B27A1BD0B2FFF75FFB5A466842DC
:1043600001B2604200B20A9BFEF7CDFF28B1721B7A
:10437000D1B23A1BD0B2FFF750FB5A46604201B2AD
:1043800028460A9BFEF7BFFF28B1321BD1B27A192B
:10439000D0B2FFF742FB5A46684201B220460A9B60
:1043A000FEF7B1FF28B1721BD1B23A19D0B2FFF7B4
:1043B00034FB5A462146684200B20A9BFEF7A3FF2F
:1043C00028B13219D1B27A1BD0B2FFF726FB5A4678
:1043D0002946604200B20A9BFEF795FF28B1721988
:1043E000D1B23A1BD0B2FFF718FB0B9800284DD082
:1043F00060420FFA80F820E05A46414628460A9B60
:10440000FEF781FF30B106EB0802D1B27A19D0B2C3
:10441000FFF703FB5A464146684200B20A9BFEF78B
:1044200072FF30B106EB0802D1B27A1BD0B2FFF7AF
:10443000F4FA08F101000FFA80F8A045DCDB6842CD
:104440000FFA80F820E05A464146604200B20A9BCB
:10445000FEF759FF30B106EB0802D1B23A1BD0B2D9
:10446000FFF7DBFA5A46414620460A9BFEF74BFF10
:1044700030B106EB0802D1B23A19D0B2FFF7CDFA4B
:1044800008F101000FFA80F8A845DCDBA542FFF631
:1044900026AFBDE8F09F000008B501210820FCF719
:1044A00093FA40F60240ADF8000003208DF80200B8
:1044B00010208DF803006946DE48FBF7C9FF08BDF0
:1044C00008B501210820FCF77FFA4FF48060ADF8B1
:1044D000000003208DF8020048208DF80300694693
:1044E000D448FBF7B5FF08BD10B50120FDF7FBFB75
:1044F00010BD70B505460E46FFF7CEFF0221CD4830
:10450000FCF755F8FFF7F0FF4FF40061C948FCF7DE
:104510004EF8FFF7E9FF0221C648FCF746F8FFF71F
:10452000E3FF00241EE005F0010028B14FF4806194
:10453000C048FCF73AF804E04FF48061BD48FCF74E
:1045400036F86D104FF40061BA48FCF72EF8FFF70B
:10455000CBFF4FF40061B748FCF729F8FFF7C4FF21
:10456000601CC4B2082CDEDB00241EE006F0010053
:1045700028B14FF48061AF48FCF717F804E04FF41E
:104580008061AC48FCF713F876104FF40061A9483D
:10459000FCF70BF8FFF7A8FF4FF40061A548FCF704
:1045A00006F8FFF7A1FF601CC4B2082CDEDB022175
:1045B000A048FBF7FCFFFFF797FF70BD2DE9F04126
:1045C000054602219B48FBF7F2FFFFF78DFF4FF4F2
:1045D00000619848FBF7EBFFFFF786FF0221954843
:1045E000FBF7E3FFFFF780FF00241EE005F001006A
:1045F00028B14FF480618F48FBF7D7FF04E04FF4F8
:1046000080618C48FBF7D3FF6D104FF4006189483F
:10461000FBF7CBFFFFF768FF4FF400618548FBF71E
:10462000C6FFFFF761FF601CC4B2082CDEDBFFF79A
:104630005BFFFFF745FF002419E04FF480617D48E0
:10464000FBF799FF0746701040EAC710C6B24FF457
:1046500000617848FBF7A9FFFFF746FF4FF40061C0
:104660007448FBF7A4FFFFF73FFF601CC4B2082C9F
:10467000E3DBFFF711FF02216E48FBF798FFFFF71E
:1046800033FF4FF400616B48FBF78FFFFFF72CFF00
:104690004FF480616748FBF78AFFFFF725FF4FF46F
:1046A00080616448FBF781FFFFF71EFF3046BDE8DD
:1046B000F08110B500218E20FFF71BFF002407E0DA
:1046C0005D4A115D5D4A105DFFF713FF601CC4B2C7
:1046D000072CF5DB80218E20FFF70BFF10BD10B5F6
:1046E000002407E05649085DFFF768FF5249085566
:1046F000601CC4B2072CF5DB10BD10B5FFF7EFFF4F
:10470000504800780A2190FBF1F030304E49087093
:104710004C4800780A2190FBF1F201FB1200303086
:104720004949487044498879C11700EB1171091152
:104730003031454A917040498879C11700EB1171B9
:104740000911A0EB01113031D1702D2011460871F3
:1047500039490879C11700EB1171091130315171D4
:1047600035490879C11700EB11710911A0EB01114E
:10477000303191712D201146C8712F49C878C11769
:1047800000EB11710911303111722B49C878C11732
:1047900000EB11710911A0EB0111303151720020B1
:1047A000114688722448407930302849087000202A
:1047B000487021498878C11700EB11710911303117
:1047C000234A11701C498878C11700EB1171091137
:1047D000A0EB0111303151703A2011468870164912
:1047E0004878C11700EB117109113031D1701249AD
:1047F0004878C11700EB11710911A0EB011130319C
:1048000011713A20114648710B490878C11700EB25
:10481000117109113031917107490878C11700EB06
:1048200011710911A0EB01113031D1710020114635
:10483000087210BD000C01403E0400203704002027
:104840003004002045040020460400205A040020C3
:104850005104002008B501210820FCF7B5F801201B
:10486000ADF8000010208DF8030003208DF8020041
:104870006946A148FBF7ECFD01219F48FBF795FE37
:1048800008BD08B50120ADF8000048208DF80300F0
:1048900069469948FBF7DCFD08BD08B50120ADF875
:1048A000000010208DF8030003208DF802006946F7
:1048B0009148FBF7CDFD08BD10B5FFF7EEFF0121D4
:1048C0008D48FBF774FE40F2EE20FDF70CFA012153
:1048D0008948FBF76AFE0F20FDF705FA10BD10B5F9
:1048E0000024FFF7CEFF04E0601CC4B20120FDF7F6
:1048F000FAF901218048FBF73EFE08B1642CF3DB96
:10490000642C01DB012010BD002404E0601CC4B253
:104910000120FDF7E8F901217748FBF72CFE08B9E3
:10492000F02CF3DBF02C01DB0120ECE70020EAE7C0
:1049300010B5FFF7B2FF01216F48FBF738FE0A20E0
:10494000FDF7D1F9FFF79DFF01216B48FBF713FE3F
:10495000012801D1012400E000242D20FDF7C3F936
:10496000204610BD70B50026002408E0FFF7E0FFE8
:10497000054605FA04F03043C6B2601CC4B2082CE8
:10498000F4DB304670BD70B50446FFF786FF0025A6
:1049900022E004F00106641076B101215648FBF7CD
:1049A00006FE0820FDF79FF901215348FBF7FDFDA6
:1049B0003A20FDF798F90DE001214F48FBF7F7FD8C
:1049C0004620FDF790F901214B48FBF7EEFD022050
:1049D000FDF789F9681CC5B2082DDADB70BD10B58A
:1049E000FFF76AFFFFF77BFFCC20FFF7CCFF4420E7
:1049F000FFF7C9FF10BD10B5FFF72CFFFFF75CFFF5
:104A0000FFF76DFF10BD2DE9F05FFFF755FFFFF7D2
:104A100066FFCC20FFF7B7FF4420FFF7B4FFFFF796
:104A20004BFFFFF75CFFCC20FFF7ADFFBE20FFF789
:104A3000AAFFFFF797FF8346FFF794FF82464FEAEE
:104A40000A2004B244EA0B04002C0DDAE043401CB7
:104A500003F049FD07460022284B03F0ABFD054655
:104A600003F062FA81460BE0204603F03CFD074666
:104A70000022234B03F09EFD054603F055FA8146C4
:104A80004846BDE8F09F10B50024FFF7BCFF044680
:104A90001C49204604F0ACF81B490860204604F08D
:104AA00069F94FF47A7190FBF1F201FB1200642175
:104AB00090FBF1F0303015490870204604F05AF9A7
:104AC000642190FBF1F201FB12000A2190FBF1F04E
:104AD00030300E4948702E208870204604F04AF984
:104AE0000A2190FBF1F201FB120030300749C87037
:104AF0000020087110BD0000000C01400000B03F14
:104B00000000E43F00002041640400205C04002019
:104B100010B50020FA49088030E029E000F076FD69
:104B2000F7480088B0F5007F22DAF648008804F0E4
:104B300055F9F549F24A128841F832000020F04A4E
:104B4000128801EBC2014860F048008804F046F981
:104B5000EF49EB4A128841F832000020E84A1288F7
:104B600001EBC2014860E6480088401CE449088027
:104B70002021E848FBF7FFFC0028CFD0E048008860
:104B8000B0F5007FC9DB10BD2DE9F04F91B00026D4
:104B9000B14600200F900E9000240FE0DA4850F844
:104BA0003410304603F0B6FF0646D94850F83410AA
:104BB000484603F0AFFF8146601C84B2B4F5007F25
:104BC000ECDB4FF08841304604F012F806464FF017
:104BD0008841484604F00CF88146002413E0CA4995
:104BE00051F83400314604F0C7FAC74941F834009F
:104BF000C74951F83400494604F0BEFAC44941F8A7
:104C00003400601C84B2B4F5007FE8DB01244FE07F
:104C1000BD4850F834104FF0804004F027F980462A
:104C2000601EB94A52F83010404603F073FF074641
:104C3000B54A601C52F83010384603F06BFF1090F4
:104C4000109803F03BFF0022B34BCDE90A0103F0BB
:104C500059FA074603F068F9AB4941F83400AC480B
:104C600050F834104FF0804004F000F98046601E88
:104C7000A74A52F83010404603F04CFF0746A44ABA
:104C8000601C52F83010384603F044FF1090109822
:104C900003F014FF0022A04BCDE90A0103F032FA21
:104CA000074603F041F99A4941F83400601C84B288
:104CB000B4F5FF7FACDD00249FE0934B621C53F8FA
:104CC00032101A4652F8340003F024FF8E4A08903E
:104CD000A01C52F83010089803F01CFF8A4A099073
:104CE000E01C52F83010099803F014FF864A0A902D
:104CF000201D52F830100A9803F00CFF824A0B90E6
:104D0000601D52F830100B9803F004FF80467E4A75
:104D1000A01D52F83010404603F0FCFE07467A4AC8
:104D2000E01D52F83010384603F0F4FE1090109851
:104D300003F0C4FE0022794BCDE90A0103F0E2F949
:104D4000074603F0F1F8704941F83400704B621CDB
:104D500053F832101A4652F8340003F0DBFE6C4A66
:104D60000890A01C52F83010089803F0D3FE684A4F
:104D70000990E01C52F83010099803F0CBFE644A09
:104D80000A90201D52F830100A9803F0C3FE604AC2
:104D90000B90601D52F830100B9803F0BBFE80465C
:104DA0005B4AA01D52F83010404603F0B3FE0746A0
:104DB000574AE01D52F83010384603F0ABFE109011
:104DC000109803F07BFE0022544BCDE90A0103F05A
:104DD00099F9074603F0A8F84D4941F834004A49CB
:104DE00051F8340003F06AFE07463A460B464CA1E0
:104DF0004D48FDF786F8601C84B2B4F5FC7FFFF6E1
:104E00005CAF4A494848FDF77CF800240DE0404972
:104E100051F8340003F052FE07463A460B4640A1D3
:104E20004148FDF76EF8601C84B2B4F5007FEEDBFC
:104E30003F493D48FDF765F8002031490880324878
:104E400000F0FFFD324800F0FCFD3A493648FDF71E
:104E500058F8002439E02C4A02EBC40251682A4A6F
:104E600002EBC402506804F001F88046264A52F86A
:104E7000341052F8340003F0F9FF41460B9003F070
:104E800049FE074603F00EF81F4941F83400204A56
:104E900002EBC40251681E4A02EBC402506803F0E0
:104EA000E5FF80461A4A52F8341052F8340003F0F5
:104EB000DDFF41460B9003F02DFE074602F0F2FFA6
:104EC000114941F83400601C84B2B4F5007FC2DBA4
:104ED00001240FE00C4850F834100F9803F01AFE2C
:104EE0000F900B4850F834100E9803F013FE0E90FC
:104EF000601C84B2B4F5007FECDB00242BE00000E2
:104F0000680400207E040020A808002080040020FF
:104F100028190020000C0140000010400000204033
:104F200025660D0A0000000000440040CCB10008D6
:104F300008B1000894B000088A4951F8340003F021
:104F4000BDFD07463A460B46AFF22C018648FCF7FA
:104F5000D8FF601C84B2FF2CEEDD84498248FCF748
:104F6000D0FF00240EE0824951F8340003F0A6FD82
:104F700007463A460B46AFF258017B48FCF7C1FFA3
:104F8000601C84B2FF2CEEDD7A497748FCF7B9FF4C
:104F90001E21744800F02AFE0D901E21744800F076
:104FA00025FE0C9074A170480D9AFCF7AAFF72A11F
:104FB0006D480C9AFCF7A5FF0D9803F094FA0022B7
:104FC0006F4BCDE9040103F0F5FA00224FF0814365
:104FD000CDE9060103F096F807460022694B03F07D
:104FE000E9FA0022684BCDE9080102F0CFFFCDE9D4
:104FF0000A0102F099FF8246504603F0BBFE634966
:10500000086049460F9803F031FF074631460E9875
:1050100003F02CFF8046394603F0EAFD83465846EC
:1050200003F04CFD07465A4A5A4B03F0C3FACDE948
:105030000601584603F042FDCDE90201584603F04F
:105040003DFD0746544A554B03F0B4FACDE9000143
:10505000DDE9022303F0AEFACDE90401DDE9062320
:1050600002F094FF4E4A4F4BCDE9080102F08EFF4B
:10507000CDE90A0102F058FF054644494D6011B0E0
:10508000BDE8F08F2DE9FC41FFF742FDFFF77CFD05
:105090003E49486803F012FD0646434A384BA43B9C
:1050A00003F086FB03D240483549A43903E0374971
:1050B000486803F003FD044602F036FF33494860B8
:1050C00008463AA102683D48FCF71BFF2F49486893
:1050D00003F0F4FC044622460B4639A13748FCF79E
:1050E00010FFFEF761F83AA200210846FEF732FCF5
:1050F0002648006838A30822002100903220FEF7DD
:1051000073FC36A214210020FEF724FC1F494868D6
:1051100003F0D4FC33A30822CDE90001142132208E
:10512000FEF762FC19480068502805DA2EA22821F3
:105130000020FEF70FFC04E02EA228210020FEF73D
:1051400009FCFEF71FF84FF400512E48FBF713FA45
:105150000446FCF71EFF012801D12B490870BDE869
:10516000FC810000A80800200044004070B1000845
:105170002819002014B0000825640D0A0000000062
:105180000000594000004E400000344074040020EC
:10519000B4C876BE9F5A3E4048E17A14AE8746C0F6
:1051A000AE47E17A14B657408FC2F528D6B8C1EEA3
:1051B000D0C4C2CA2533640D0A0000000038014083
:1051C000D6B8C1EED1AAD1F525302E32660D0A002F
:1051D000D0C4C2CAA3BA000025640000D1AAD1F588
:1051E000A3BA000025660000D7B4CCACA3BAD5FDA5
:1051F000B3A30000D7B4CCACA3BAD0C4C2CAB9FD23
:10520000B8DF0000000C01402C00002008B501218F
:105210000820FBF7D9FB14208DF803004020ADF8DF
:10522000000003208DF802006946CC48FBF710F916
:105230008020ADF800006946C848FBF709F908BDB1
:10524000062000BF011EA0F10102D0B2FAD17047C2
:1052500010B54021C148FBF7A8F98021BF48FBF7F2
:10526000A4F9FFF7EDFF8021BC48FBF7A0F9FFF799
:10527000E7FF4021B948FBF79AF9FFF7E1FF10BDBE
:1052800010B58021B548FBF792F94021B348FBF7F0
:105290008CF9FFF7D5FF8021B048FBF786F9FFF7BF
:1052A000CFFF10BD70B5044600251DE004F080005E
:1052B00020B18021A948FBF778F903E08021A748B5
:1052C000FBF775F9FFF7BCFF4021A448FBF76DF928
:1052D000FFF7B6FF4021A148FBF769F9FFF7B0FFE0
:1052E0006006040E681CC5B2082DDFDB80219B48D8
:1052F000FBF75BF9FFF7A4FF40219848FBF755F94E
:10530000FFF79EFF80219548FBF735F918B1012082
:105310009349087002E000209149087040218F48AD
:10532000FBF745F9FFF78CFF70BD70B50024002531
:1053300016E06006040E40218848FBF736F9FFF7B7
:105340007FFF80218548FBF716F908B1601CC4B2C5
:1053500040218248FBF72BF9FFF772FF681CC5B2AA
:10536000082DE6DB204670BD70B504460D46164696
:10537000FFF76EFFE0B2FFF795FF7948007801284C
:1053800001D1002070BD2846FFF78CFF74480078DB
:10539000012801D10020F5E73046FFF783FF704870
:1053A0000078012801D10020ECE7FFF769FF012018
:1053B000E8E710B5044694B180216848FBF7F5F89A
:1053C000FFF73EFF40216548FBF7EFF8FFF738FF96
:1053D00040216248FBF7EBF8FFF732FF15E0802130
:1053E0005E48FBF7E4F8FFF72BFF40215B48FBF733
:1053F000DCF8FFF725FF40215848FBF7D8F8FFF706
:105400001FFF80215548FBF7D0F810BD70B504464A
:105410000D46FFF71DFFE0B2FFF744FF504800784C
:10542000012801D1002070BD2846FFF73BFF4C4802
:105430000078012801D10020F5E7FFF709FF611C82
:10544000C8B2FFF72FFF46480078012801D100209D
:10545000E9E7FFF76AFF06460120FFF7AAFFFFF71B
:105460000FFF3046DFE72DE9F04104460F461546B1
:105470009846FFF7EDFEE0B2FFF714FF38480078DA
:10548000012802D10020BDE8F081F8B2FFF70AFF41
:1054900033480078012801D10020F4E7FFF7D8FE57
:1054A000611CC8B2FFF7FEFE2D480078012801D12B
:1054B0000020E8E700260BE015F8010BFFF7F2FEED
:1054C00027480078012801D10020DCE7701C86B253
:1054D0004645F1DBFFF7D4FE0120D4E72DE9F0418A
:1054E0000446884616461F46FFF7B2FEE0B2FFF7B5
:1054F000D9FE1B480078012802D10020BDE8F081C8
:1055000008F0FF00FFF7CEFE15480078012801D112
:105510000020F3E7FFF79CFE611CC8B2FFF7C2FE54
:105520000F480078012801D10020E7E700250FE0AF
:10553000FFF7FBFE06F8010B781EA84203D10120FD
:10554000FFF737FF02E00020FFF733FF681C85B24A
:10555000BD42EDDBFFF794FE0120CFE7000C0140D8
:105560007C04002008B501210820FBF72DFA042057
:105570008DF803002020ADF8000069465448FAF782
:1055800067FF08BD10B540220921AE20FFF7ECFEF1
:1055900008B1012010BD0020FCE710B5C022022197
:1055A000AE20FFF7E1FE00220321AE20FFF7DCFE74
:1055B00000220421AE20FFF7D7FE00220521AE20F5
:1055C000FFF7D2FE00220621AE20FFF7CDFE0F220C
:1055D0000821AE20FFF7C8FE03220921AE20FFF705
:1055E000C3FE27220A21AE20FFF7BEFE32220C2185
:1055F000AE20FFF7B9FE32220D21AE20FFF7B4FE38
:105600007F221021AE20FFF7AFFE10BD1CB5002099
:1056100030490880304908800021AE20FFF7F6FEAF
:105620000121AE20FFF7F2FE07208DF800000623CF
:105630006A460721AE20FFF751FF9DF800404FF664
:10564000FF7000EA84342348008820442149088000
:105650009DF801404FF6FF7000EA84140846008868
:10566000204408809DF80240A41008460088204489
:1056700008809DF803404FF6FF7000EA8434164816
:1056800000882044144908809DF804404FF6FF70BC
:1056900000EA841408460088204408809DF80540EC
:1056A000A41008460088204408800846008842F27A
:1056B0001071884202DC00200749088005480088F4
:1056C00042F21071884202DC0020024908801CBDB1
:1056D000000C01407E040020800400202DE9FC41E4
:1056E00004460D46CDE90045019800F0004080B128
:1056F0002046294602F09AFE804603F057FB0746F3
:105700004FF07E5103F038FD064603F0D7F9BDE8AF
:10571000FC812046294602F089FE074603F046FB3D
:10572000064603F0CBF9F2E72DE9FC5F06460F468B
:1057300014461D46002213462046294602F03AFE32
:1057400003D100200146BDE8FC9F22462B4630468F
:10575000394602F0D7FC8246FFF7C0FFCDE90001D1
:1057600022462B46DDE9000102F024FF8246324644
:105770003B4603F0ADF8804689460022134630468A
:10578000394602F0DBFE02D24FF0010A01E04FF091
:10579000000A002213462046294602F0CFFE01D21D
:1057A000012000E00020824507D022462B464046DB
:1057B000494603F099F88046894640464946C2E783
:1057C0002DE9F04F93B004460D464FF0000B002238
:1057D00013462046294602F0B1FE03D24FF0010BDA
:1057E00085F00045F74AF84B20462946FFF79CFF15
:1057F00004460D46F34AF54B2046294602F0D8FFF1
:105800000ED2BBF1000F01D1012000E00020834641
:10581000EC4AEE4B2046294603F066F804460D4656
:10582000E84AEB4B2046294602F0C2FF07D2E54A80
:10583000E64B2046294603F04BF804460D46E54A60
:10584000E54B2046294602F05DFCCDE90E0102F051
:10585000EDFD8246504602F046FEDE4ADE4BCDE9C3
:105860000C0102F0A7FE22462B46CDE90E0103F003
:105870002FF806460F46D74AD84B3046394602F035
:1058800097FF09D20AF1010AD24AD34B3046394672
:1058900003F02AF806460F46D14800EBCA00D0E9CB
:1058A0000089CAF16400CE4901EBC00003C8CDE90C
:1058B000100132463B463046394602F07BFE324606
:1058C0003B46CDE9040102F075FE32463B46CDE988
:1058D000060102F06FFE42464B46CDE9080102F098
:1058E00069FE0022BF4BCDE90A0102F00BFC3246F3
:1058F0003B46CDE90E013046394602F05BFE3246AA
:105900003B46CDE9020102F055FECDE90401DDE997
:10591000102302F04FFE0022B34BCDE9060102F046
:10592000F1FB32463B46CDE90A013046394602F0EA
:1059300041FE42464B46CDE9000102F03BFE00220B
:105940004FF08043CDE9020102F0DCFBCDE9060116
:1059500030463946DDE9102302F02CFE42464B4624
:10596000CDE9020102F012FBCDE90401DDE90623D5
:1059700002F0BAFFCDE90801DDE90A2302F0B4FF25
:10598000CDE90C01DDE90E2302F000FB04460D46D3
:10599000BBF1000F05D0204685F0004113B0BDE8F3
:1059A000F08F20462946F9E72DE9F04104460D46DF
:1059B000844A874B2046294602F0E8FA0646FFF75C
:1059C000FFFEBDE8F08130B5014600220020002333
:1059D00000240DE04000950005EBA172890001252F
:1059E00005EB4003934201D8D21A401C651CACB2AF
:1059F000102CEFDB30BD0FB47CB504460A99089833
:105A000003F034FA05460999079803F02FFA064681
:105A1000294603F0B1FB0090DDE9080103F026FA06
:105A200005460A99079803F021FA0646294603F02D
:105A300071F80190DDE90001C4E900017CBC5DF86A
:105A400014FB2DE9F04F91B0044600264FF480700E
:105A50000E9040F2FF100D9000251CE0B5420FDAC9
:105A600004EBC60103C9CDE9060104EBC60004EB53
:105A7000C50206CA06C004EBC500DDE9061206C071
:105A80000E9F04E0F61B384607EBD0714F10B7426B
:105A9000F8DD3E446D1C0D988542DFDB4FF400704D
:105AA0000F9001200C9002E00C98401C0C900F9875
:105AB00000EBD07149100F910129F5D188467BE0A8
:105AC000A8F10100022101FA00F9484609EBD07162
:105AD0004FEA610A4FF07E500A9000200B9050462A
