:020000040800F2
:1000000090060020890100083106000897050008C5
:10001000D705000811040008990E00080000000030
:10002000000000000000000000000000450B000878
:100030001504000800000000E9090008850C00080C
:10004000A3010008A3010008A3010008A301000800
:10005000A3010008A3010008A3010008A3010008F0
:10006000A3010008A3010008A3010008A3010008E0
:10007000A3010008A3010008A3010008A3010008D0
:10008000A3010008A3010008A3010008A3010008C0
:10009000A3010008A3010008A3010008A3010008B0
:1000A000A3010008A3010008A3010008A3010008A0
:1000B000A3010008A3010008E90C0008A30100083F
:1000C000A3010008A3010008A3010008A301000880
:1000D000A3010008A3010008A3010008A301000870
:1000E000A3010008A3010008A301000800F002F822
:1000F00000F03AF80AA090E8000C82448344AAF188
:100100000107DA4501D100F02FF8AFF2090EBAE885
:100110000F0013F0010F18BFFB1A43F0010318473B
:100120006818000088180000103A24BF78C878C109
:10013000FAD8520724BF30C830C144BF04680C60ED
:10014000704700000023002400250026103A28BF35
:1001500078C1FBD8520728BF30C148BF0B60704739
:100160001FB51FBD10B510BD00F031F81146FFF7E7
:10017000F7FF00F093FE00F04FF803B4FFF7F2FF33
:1001800003BC00F057F800000948804709480047C1
:10019000FEE7FEE7FEE7FEE7FEE7FEE7FEE7FEE737
:1001A000FEE7FEE704480549054A064B7047000094
:1001B000890C0008ED000008900000209006002047
:1001C00090020020900200207047704770477546EB
:1001D00000F02CF8AE4605006946534620F00700B3
:1001E000854618B020B5FFF7DDFFBDE820404FF091
:1001F00000064FF000074FF000084FF0000B21F011
:100200000701AC46ACE8C009ACE8C009ACE8C009DD
:10021000ACE8C0098D46704710B50446AFF30080C6
:100220002046BDE81040FFF7A8BF00000048704717
:100230003000002001491820ABBEFEE72600020076
:100240007047000010B500F059FC00F045FC80211B
:10025000104800F099F9022000F0E9F880210D48DB
:1002600000F092F940210B4800F083F9012802D1F7
:100270000949087002E000200749087080210548FC
:1002800000F080F9052000F0D2F800F049FC0248A7
:10029000007810BD000801400D00002070B500245A
:1002A00000F02CFC00F018FC00251DE06006040E98
:1002B000052000F0BCF880210D4800F065F94021D0
:1002C0000B4800F056F9012801D1012600E0002674
:1002D0000EB1601CC4B2052000F0A9F880210448CA
:1002E00000F050F9681CC5B2082DDFDB204670BD58
:1002F0000008014010B5044600F0EEFB00F010FCD1
:1003000024B940210B4800F03DF903E040210948A1
:1003100000F03AF98021074800F036F9022000F099
:1003200086F88021034800F02DF9052000F07FF8C1
:1003300010BD00000008014070B5044600F0CCFB81
:1003400000F0EEFB002520E0052000F070F804F03E
:10035000800020B140210F4800F016F903E0402151
:100360000C4800F00FF9052000F061F880210948E1
:1003700000F00AF9052000F05AF88021054800F045
:1003800001F96006040E681CC5B2082DDCDBFFF71E
:1003900059FF70BD0008014010B500F09DFB00F052
:1003A000BFFB40210A4800F0EFF88021084800F028
:1003B000EBF8022000F03BF84021054800F0E2F89D
:1003C000022000F034F88021014800F0DBF810BD75
:1003D0000008014010B500F07FFB00F0A1FB4021B8
:1003E0000A4800F0CFF88021084800F0CDF802203C
:1003F00000F01DF84021054800F0C6F8022000F08A
:1004000016F88021014800F0BDF810BD0008014039
:1004100000BFFEE7704700B5034603E04FF47A7073
:1004200000F005F8181EA3F10103F7D100BD00EBA1
:10043000C001C9004FF0E022516100219161052106
:10044000116100BF4FF0E021096901F480310029FA
:10045000F8D004214FF0E022116170472DE9F041FE
:10046000024600250026002000230024002791F8E2
:1004700003C00CF00F0591F803C00CF0100CBCF198
:10048000000F03D091F802C04CEA050591F800C0B6
:10049000BCF1000F31D0146800202BE04FF0010CAC
:1004A0000CFA00F3B1F800C00CEA03069E4220D11A
:1004B00083004FF00F0C0CFA03F7BC4305FA03FC62
:1004C0004CEA040491F803C0BCF1280F06D14FF0A8
:1004D000010C0CFA00FCC2F814C00AE091F803C049
:1004E000BCF1480F05D14FF0010C0CFA00FCC2F82A
:1004F00010C0401C0828D1D31460B1F800C0BCF172
:10050000FF0F34DD546800202EE000F1080C4FF09E
:10051000010808FA0CF3B1F800C00CEA03069E4289
:1005200021D183004FF00F0C0CFA03F7BC4305FAFE
:1005300003FC4CEA040491F803C0BCF1280F05D178
:1005400000F1080C08FA0CF8C2F8148091F803C006
:10055000BCF1480F07D100F1080C4FF0010808FA70
:100560000CF8C2F81080401C0828CED35460BDE8B7
:10057000F0810246002093680B400BB1012000E09F
:100580000020704741617047016170470AB1016105
:1005900000E04161704700BFFEE710B50B2131203C
:1005A00000F05FFB08212C2000F05BFB08212D20D0
:1005B00000F057FB80212E2000F053FB00211E206D
:1005C00000F04FFB00211F2000F04BFB05212020F5
:1005D00000F047FB10BD00BFFEE7000010B5FFF7BD
:1005E000DBFEA620FFF7A8FE3220FFF7A5FEFFF7EF
:1005F000D3FEA720FFF7A0FE00240EE0FFF74EFE7B
:100600000A490855052C03D10120FFF773FE02E0CB
:100610000020FFF76FFE601CC4B2062CEEDBFFF774
:10062000D9FE0520FFF703FF10BD000000000020E9
:100630007047000070B5002100230F22C47804B376
:10064000154C246804F4E064C4F5E064210AC1F1A7
:100650000403CA40447804FA03F184781440214327
:1006600009010E4C0678A155047804F01F050124F9
:10067000AC4005786D11AD0005F1E025C5F80041ED
:1006800009E0047804F01F050124AC40044D06780D
:10069000761145F8264070BD0CED00E000E400E066
:1006A00080E100E002490143024A11607047000006
:1006B0000000FA050CED00E070B500240EE000210A
:1006C000204600F0F0F8002504E0002000F07CF95E
:1006D000681CC5B2802DF8DB601CC4B2082CEEDBB0
:1006E00070BD000008B50121082000F08FF914202A
:1006F0008DF8030003208DF802004FF48070ADF8F0
:10070000000069460A48FFF7A9FE4FF40070ADF8F3
:10071000000069460648FFF7A1FE012211020448C5
:10072000FFF734FF012251020148FFF72FFF08BDF8
:10073000000C014070B50546002415E080202041E2
:1007400000EA05024FF400710E48FFF71FFF012277
:1007500011020C48FFF71AFF00224FF4807109487C
:10076000FFF714FF601CC4B2082CE7DB0122110262
:100770000448FFF70BFF00224FF480710148FFF798
:1007800005FF70BD000C014010B5012251020A485E
:10079000FFF7FCFE012211020748FFF7F7FE0022D7
:1007A0004FF400710448FFF7F1FE00224FF480710E
:1007B0000148FFF7EBFE10BD000C014010B5002210
:1007C0004FF400710648FFF7E1FE012211020448D0
:1007D000FFF7DCFE012251020148FFF7D7FE10BDF2
:1007E000000C014070B5002406E0002500E06D1CFF
:1007F000B5F57A7FFBD3641CB4F57A7FF5D3FFF7A8
:1008000071FFAE2000F0D0F8D52000F0CDF88020A8
:1008100000F0CAF8A82000F0C7F83F2000F0C4F8A4
:10082000D32000F0C1F8002000F0BEF8402000F016
:10083000BBF8A12000F0B8F8C82000F0B5F8DA2025
:1008400000F0B2F8122000F0AFF8812000F0ACF810
:10085000CF2000F0A9F8D92000F0A6F8F12000F090
:10086000A3F8DB2000F0A0F8302000F09DF8A420D1
:1008700000F09AF8A62000F097F88D2000F094F888
:10088000142000F091F8AF2000F08EF8FFF714FF6D
:1008900070BD10B50246012000E050430B1EA1F1CF
:1008A0000101FAD110BD70B505460C4645F0B00007
:1008B00000F07AF8102141EA141000F075F804F005
:1008C0000F0000F071F870BD2DE9F04105460E46AD
:1008D0001746721ED206110E6A1E5206100EFFF740
:1008E000E2FF002409E0A7F12001134A02EB011105
:1008F000085D00F069F8601CC4B2082CF3DB721EBE
:10090000D206110E6A1E012303EB4202D0B2FFF79A
:10091000CAFF00240BE0A7F12001074A02EB0112F5
:1009200004F10801505C00F04FF8601CC4B2082CC0
:10093000F1DBBDE8F0810000961300082DE9F047D7
:1009400080460E4617461D46002415E0281B411E12
:100950000A20FFF79EFFB7FBF0F00A21B0FBF1F28F
:1009600001FB120000F130093019C1B24A4640467D
:10097000FFF7AAFF601CC4B2AC42E7DBBDE8F0871A
:100980002DE9F04107460E461546002407E02A5D92
:100990003019C1B23846FFF797FF601CC4B2285D1A
:1009A0000028F4D1BDE8F08110B50446FFF7ECFE55
:1009B0007820FFF7BFFE0020FFF7BCFE2046FFF7C0
:1009C000B9FEFFF7FBFE10BD10B50446FFF7DCFED5
:1009D0007820FFF7AFFE4020FFF7ACFE2046FFF780
:1009E000A9FEFFF7EBFE10BD7047000029B1064AD3
:1009F000D2690243044BDA6104E0034AD2698243BC
:100A0000014BDA61704700000010024029B1064A2C
:100A100092690243044B9A6104E0034A926982435B
:100A2000014B9A6170470000001002402DE9F04729
:100A3000FFF7D4FD234800782249497800EB0124D0
:100A4000204600F011FC814600F0D6FB07464FF02F
:100A500033321D4B00F0D2FA054600F09DFA1B49D7
:100A60000860184880781749C97800EB01242046AF
:100A700000F0FAFB814600F0BFFB07464FF033322F
:100A8000114B00F0BBFA054600F086FA10490860E9
:100A90000C4800790B49497900EB0124204600F00D
:100AA000E3FB814600F0A8FB07464FF03332064BCC
:100AB00000F0A4FA054600F06FFA06490860BDE8A8
:100AC000F08700000000002033330F4010000020AA
:100AD000140000201800002008B58020ADF80000A8
:100AE00010208DF8030003208DF8020069460248AB
:100AF000FFF7B4FC08BD00000008014008B5402025
:100B0000ADF8000048208DF8030003208DF80200A6
:100B100069460248FFF7A2FC08BD0000000801403A
:100B200008B54020ADF8000010208DF80300032028
:100B30008DF8020069460248FFF790FC08BD0000EE
:100B400000080140704710B500F002F810BD000029
:100B50000CB50020019000903348006840F48030CC
:100B60003149086000BF3048006800F40030009050
:100B70000198401C0190009818B90198B0F5A06F39
:100B8000F1D12948006800F4003010B10120009034
:100B900001E0002000900098012843D1234800681C
:100BA00040F01000214908600846006820F003006A
:100BB00008600846006840F0020008601A48406873
:100BC000194948600846406848600846406840F453
:100BD000806048600846406820F47C104860084601
:100BE000406840F4E81048600846006840F08070B3
:100BF000086000BF0C48006800F000700028F9D0C1
:100C00000948406820F003000749486008464068EA
:100C100040F00200486000BF0348406800F00C004C
:100C20000828F9D10CBD000000100240002002404D
:100C300070B50446FFF7B0FBA620FFF77DFB20460A
:100C4000FFF77AFBFFF7A8FBA720FFF775FBFFF77D
:100C500025FB05460120FFF74DFBFFF7BBFB2846B0
:100C600070BD70B505460C46FFF796FBA620FFF752
:100C700063FB2846FFF760FB2046FFF75DFBFFF7AD
:100C8000A9FB70BD7047000010B51348006840F024
:100C900001001149086008464068104908400E49A3
:100CA0004860084600680E4908400B49086008463D
:100CB000006820F4802008600846406820F4FE00A8
:100CC00048604FF41F008860FFF73DFF4FF0006061
:100CD0000449086010BD0000001002400000FFF849
:100CE000FFFFF6FE08ED00E010B50121074800F017
:100CF00023F8012808D106480088401C04490880D0
:100D00000121024800F009F810BD00000008004071
:100D10001C000020CA4302827047CA430282704707
:100D200021B1028842F00102028004E002884FF6FD
:100D3000FE731A400280704730B50246002000233F
:100D40000024158A05EA0103958905EA010413B117
:100D50000CB1012000E0002030BD1AB183890B43A3
:100D6000838102E083898B438381704701894FF639
:100D7000F872114001817047002202881D4B984291
:100D80000ED01D4B98420BD0B0F1804F08D01B4BBA
:100D9000984205D01A4B984202D01A4B984204D17F
:100DA0004FF68F731A404B881A43174B984207D05F
:100DB000164B984204D04FF6FF431A40CB881A4393
:100DC00002808B8883850B8803850A4B98420BD061
:100DD000094B984208D00E4B984205D00D4B9842D3
:100DE00002D00D4B984201D10B7A038601238382F6
:100DF00070470000002C0140003401400004004016
:100E000000080040000C00400010004000140040AA
:100E10000040014000440140004801401FB501214D
:100E20000420FFF7E3FD1B48FFF7A0FF0020ADF80B
:100E30000A00ADF806006320ADF808004720ADF8C1
:100E4000040000208DF80C0001A91248FFF794FF60
:100E500001211048FFF75EFF012211460D48FFF700
:100E60007CFF4FF4A060FFF71DFC1E208DF80000F2
:100E700001208DF8030002208DF8010001208DF87B
:100E800002006846FFF7D6FB01210248FFF748FF42
:100E90001FBD00000008004000BFFEE7FFF7A2FCF6
:100EA000FFF7BCFFFFF779FBFFF706FC2DA201213E
:100EB0000846FFF765FD2DA201210220FFF760FD26
:100EC0002CA201210320FFF75BFD49E00020FFF782
:100ED000AFFEE52803D10520FFF79DFA02E00320CD
:100EE000FFF799FA25480088322805D100202349C8
:100EF00008800120224908702148007801281AD171
:100F000000201F490870FFF791FD1E480078401C23
:100F10001C4908701C491D48006800F0BDF905D245
:100F20001B480068401C1A49086004E01948006822
:100F3000401C184908600523104802880721012039
:100F4000FFF7FCFC05231248072102680220FFF787
:100F5000F5FC05230F48072102680320FFF7EEFC8C
:100F6000B4E700004E756D3A000000004E5F6E75EC
:100F70006D3A0000455F6E756D3A00001C00002060
:100F80001E0000202000002000806D44180000207A
:100F9000280000202C00002021F00042A2F1605225
:100FA000B2F5801F01F0004328BFD2F17F6C0BD94E
:100FB0005FEA001C43EAC20242EB507018BF704760
:100FC00028BF20F001007047B2F5801FBCBF184653
:100FD00070474FEA410C1CF5001F02D2084600F092
:100FE000D5B970B500F0B4F800000089FFF7F6BF7E
:100FF0004FF00040A0F5800070470000DFF848C1C6
:1010000070B51CEA111E1EBF1CEA13159EEA0C0FD8
:1010100095EA0C0F00F06F8081EA030423EA4C1379
:101020004EEAD47E21EA4C1141F4801143F480133E
:10103000AE44A1FB024CA0FB0365AEF17F7E3619E6
:1010400055EB0C05A1FB034C4CF10003A0FB021C6B
:1010500016EB0C06654153F10003094218BF46F038
:10106000010613F4007F0BD14FEA03314FEA05303C
:10107000340341EA155140EA16506FF003020AE0CA
:101080004FEAC3214FEAC520F40241EA555140EA34
:1010900056506FF0020202EB2E4201EB025585EA38
:1010A000CE710AD05FEA440C18BF24F0004450F11E
:1010B000000041F1000120EAD47040F2FE7C62455C
:1010C00000D270BDA84214BF4FF080444FF040449E
:1010D000002E08BF0024BEF1806FA8BFA1F1C0415F
:1010E000BDE8704080F282804FF0000001F1C04105
:1010F00001F0004170479EEA0C0F0CEA131518BF6F
:1011000095EA0C0F06D04FF0000081EA030E0EF0B6
:10111000004170BD00F01CF88900013E00F007B8E6
:1011200000F009B84FEA430C5FEA5C5C08D081EA42
:10113000030100F05BB84FEA410C5FEA5C5CF6D15A
:101140004FF00000014970470000FF070000F87FE2
:101150000EF1020E2EF0030E5EF8046B364205D43B
:10116000012A43EB030515F5001F12D8012841EBB6
:10117000010C1CF5001F0CD80ED14FEAD17C15F5DF
:10118000001F0CEB4C0C0CF1020C08BF4CEBD37C99
:1011900004E04FF0080C01E04FEAD37C0CEB4C0567
:1011A00026FA05F606F00706B6F1040C06D20EEB99
:1011B000860CBDE870404CF0010C6047DFE80CF095
:1011C000090B02024FF000414FF00000A1F5002191
:1011D00070BD19461046012851EB010418BFD4F523
:1011E000001484BF002001F0004170BD0808A0F584
:1011F00000114FEA3101704743004FEAD30C4FEA28
:101200003C0C43401FBF40070CF1605113F0FE4FF0
:1012100070471CF0006F03D100200CF000417047B4
:101220000CF0004343EA507010B540EACC0000F0E7
:1012300067F800BF000000924FEA0001FFF7D6BF39
:101240004FF000414FF00000A1F500217047401021
:1012500058BFC0F14040491058BFC1F140418142E0
:10126000EFF300807047000010F0004148BF40429B
:10127000B0FA80F310FA03F2C3F19D030BD051EAE8
:10128000C35101EB1220530638BF704700F1010033
:1012900008BF20F00100704750EA010C00F11380F4
:1012A0001CF5000F58BFBCF5000F01D488427047F1
:1012B00007D710F5000F58BF11F5000F15D488425D
:1012C0007047894270471CF5000F04D5BCF5000F2C
:1012D000F7D5814270474FF0807C1CEB400F38BF40
:1012E0001CEB410F01D28142704710B500F008F8A5
:1012F000922449004FF000504FF08051FFF7A7BFF4
:101300000EF1020E2EF0030E5EF8044B244204D4BC
:101310004FEA4102B2F17F4F11D84FEA4003B3F1D7
:101320007F4F0CD80ED14FEAD07CB2F17F4F0CEB3F
:101330004C0C0CF1020C08BF4CEBD17C04E04FF0DC
:10134000080C01E04FEAD17C0CEB4C0324FA03F4C7
:1013500004F00704B4F1040C06D20EEB840CBDE8D3
:1013600010404CF0010C6047DFE80CF00708020267
:101370004FF00040A0F5800010BD0846420018BFA5
:10138000D2F1807288BF00F0004010BDFF2141EA19
:10139000D050C005704700000000000000000000B1
:1013A000000000000000000000F800000000000045
:1013B00000333000000000100C06100C0600000086
:1013C00000000000000040C07840C0784000043FAA
:1013D00004043F040400007088FC0830000000187A
:1013E00020FF211E0000F008F000E018000000219E
:1013F0001C031E211E0000F00888700000001E2142
:1014000023241927211010160E00000000000000F0
:10141000000000000000000000E0180402000000CE
:1014200000071820400000020418E00000000040FF
:10143000201807000000404080F080404000020279
:10144000010F01020200000000F000000000010195
:10145000011F01010100000000000000000080B039
:10146000700000000000000000000000000000010B
:101470000101010101010000000000000000003036
:1014800030000000000000000000806018040060D0
:1014900018060100000000E010080810E000000F2E
:1014A000102020100F00001010F800000000002095
:1014B000203F2020000000700808088870000030DD
:1014C0002824222130000030088888483000001885
:1014D000202020110E000000C02010F8000000079E
:1014E0000424243F240000F8088888080800001914
:1014F000212020110E0000E0108888180000000F45
:10150000112020110E0000380808C838080000001B
:10151000003F000000000070880808887000001C70
:10152000222121221C0000E010080810E000000029
:10153000312222110F00000000C0C0000000000096
:1015400000303000000000000080000000000000BB
:1015500080600000000000008040201008000001B2
:101560000204081020004040404040404000040475
:10157000040404040400000810204080000000203F
:10158000100804020100007048080808F00000007C
:10159000003036010000C030C828E810E00007180D
:1015A000272423140B000000C038E0000000203C7A
:1015B00023020227382008F8888888700000203F1E
:1015C000202020110E00C030080808083800071835
:1015D00020202010080008F808080810E000203F2C
:1015E000202020100F0008F88888E8081000203F0D
:1015F00020202320180008F88888E8081000203FE1
:10160000200003000000C030080808380000071858
:101610002020221E020008F808000008F808203FD9
:10162000210101213F20000808F8080800000020DF
:10163000203F2020000000000808F8080800C080B3
:1016400080807F00000008F888C028180800203F2C
:1016500020012638200008F8080000000000203F84
:1016600020202020300008F8F800F8F80800203F7B
:10167000003F003F200008F830C00008F808203F75
:10168000200007183F00E01008080810E0000F10C5
:10169000202020100F0008F808080808F000203F5C
:1016A000210101010000E01008080810E0000F18F7
:1016B000242438504F0008F8888888887000203F1C
:1016C0002000030C3020007088080808380000381B
:1016D000202121221C00180808F808081800000022
:1016E000203F2000000008F808000008F808001F4C
:1016F000202020201F000878880000C8380800003B
:1017000007380E010000F80800F80008F800033C54
:101710000700073C0300081868808068180820301C
:101720002C03032C30200838C800C83808000000FB
:10173000203F2000000010080808C83808002038A2
:10174000262120201800000000FE020202000000F6
:10175000007F40404000000C30C00000000000004E
:1017600000010638C00000020202FE000000004036
:1017700040407F000000000004020202040000005C
:101780000000000000000000000000000000808059
:101790008080808080800002020400000000000041
:1017A0000000000000000000808080800000001920
:1017B000242222223F2008F8008080000000003F01
:1017C000112020110E000000008080800000000E1B
:1017D000112020201100000000808088F800000EF9
:1017E000112020103F200000808080800000001F1A
:1017F000222222221300008080F08888881800208E
:10180000203F202000000000808080808000006B4E
:1018100094949493600008F8008080800000203F3A
:10182000210000203F200080989800000000002048
:10183000203F20200000000000809898000000C099
:101840008080807F000008F8000080808000203FBA
:1018500024022D302000000808F8000000000020BD
:10186000203F202000008080808080808000203FFA
:1018700020003F20003F8080008080800000203FCB
:10188000210000203F200000808080800000001F99
:10189000202020201F00808000808000000080FF2A
:1018A000A12020110E000000008080808000000E2A
:1018B000112020A0FF808080800080808000202078
:1018C0003F212000010000008080808080000033E4
:1018D000242424241900008080E08080000000007F
:1018E000001F202000008080000000808000001F7A
:1018F000202020103F208080800000808080000118
:101900000E300806010080800080008080800F304B
:101910000C030C300F0000808000808080000020CD
:10192000312E0E31200080808000008080808081F8
:101930008E70180601000080808080808000002169
:10194000302C2221300000000000807C02020000C8
:101950000000003F404000000000FF0000000000C9
:101960000000FF0000000002027C80000000004038
:10197000403F0000000000060101020204040000D4
:101980000000000000000000A8190008000000206E
:101990003000000028010008D8190008300000209D
:1019A0006006000044010008000000000000000084
:1019B0000000000000000000000000000000000027
:1019C0000000000000000000000000000000000017
:0819D00000000000000000000F
:04000005080000ED02
:00000001FF
